:100000000C942D040C9455040C9455040C94550434
:100010000C9455040C9455040C9455040C945504FC
:100020000C9455040C9455040C94D80D0C94470E64
:100030000C9455040C9455040C9455040C945504DC
:100040000C9455040C9455040C9455040C945504CC
:100050000C9455040C9455040C9455040C9479108C
:100060000C9455040C9455040C9455040C945504AC
:100070000C9455040C9455040C9455040C9455049C
:100080000C9455040C9455040C9455040C9455048C
:100090000C9455040C9455040C9455040C9455047C
:1000A0000C9455040C9455040C9455040000000065
:1000B000003E5B4F5B3E3E6B4F6B3E1C3E7C3E1CEE
:1000C000183C7E3C181C577D571C1C5E7F5E1C0034
:1000D000183C1800FFE7C3E7FF0018241800FFE7EB
:1000E000DBE7FF30483A060E2629792926407F05AE
:1000F0000507407F05253F5A3CE73C5A7F3E1C1CC4
:1001000008081C1C3E7F14227F22145F5F005F5F83
:1001100006097F017F006689956A6060606060946F
:10012000A2FFA29408047E040810207E2010080874
:100130002A1C08081C2A08081E101010100C1E0C7F
:100140001E0C30383E3830060E3E0E060000000011
:100150000000005F00000007000700147F147F14F8
:10016000242A7F2A1223130864623649562050003D
:1001700008070300001C2241000041221C002A1C29
:100180007F1C2A08083E0808008070300008080814
:100190000808000060600020100804023E51494534
:1001A0003E00427F400072494949462141494D3352
:1001B0001814127F1027454545393C4A49493141B9
:1001C000211109073649494936464949291E000087
:1001D00014000000403400000008142241141414DC
:1001E0001414004122140802015909063E415D59C8
:1001F0004E7C1211127C7F494949363E41414122D1
:100200007F4141413E7F494949417F090909013EFA
:10021000414151737F0808087F00417F4100204021
:10022000413F017F081422417F404040407F021C33
:10023000027F7F0408107F3E4141413E7F0909094A
:10024000063E4151215E7F09192946264949493216
:1002500003017F01033F4040403F1F2040201F3FDC
:100260004038403F63140814630304780403615961
:10027000494D43007F4141410204081020004141A3
:10028000417F04020102044040404040000307084F
:100290000020545478407F2844443838444444284B
:1002A000384444287F385454541800087E090218F2
:1002B000A4A49C787F0804047800447D400020407A
:1002C000403D007F1028440000417F40007C0478BE
:1002D00004787C080404783844444438FC18242406
:1002E0001818242418FC7C08040408485454542486
:1002F00004043F44243C4040207C1C2040201C3C03
:100300004030403C44281028444C9090907C4464F9
:10031000544C44000836410000007700000041368C
:10032000080002010204023C2623263C1EA1A16112
:10033000123A4040207A3854545559215555794144
:100340002154547841215554784020545579400C1B
:100350001E527212395555555939545454593955FC
:100360005454580000457C410002457D420001453F
:100370007C40F0292429F0F0282528F07C545545AC
:10038000002054547C547C0A097F4932494949323F
:100390003248484832324A4848303A4141217A3A54
:1003A00042402078009DA0A07D39444444393D401E
:1003B00040403D3C24FF2424487E4943662B2FFCCB
:1003C0002F2BFF0929F620C0887E09032054547979
:1003D000410000447D413048484A32384040227A4A
:1003E000007A0A0A727D0D19317D2629292F2826C7
:1003F0002929292630484D402038080808080808CF
:100400000808382F10C8ACBA2F102834FA00007B27
:10041000000008142A142222142A1408950022002D
:1004200095AA005500AAAA55AA55AA000000FF00E7
:10043000101010FF00141414FF001010FF00FF1024
:1004400010F010F0141414FC001414F700FF000056
:10045000FF00FF1414F404FC141417101F10101FD5
:10046000101F1414141F00101010F0000000001FC3
:10047000101010101F10101010F010000000FF10CE
:100480001010101010101010FF10000000FF1400CA
:1004900000FF00FF00001F10170000FC04F41414FC
:1004A0001710171414F404F40000FF00F7141414C8
:1004B00014141414F700F7141414171410101F1048
:1004C0001F141414F4141010F010F000001F101F6B
:1004D0000000001F14000000FC140000F010F010D9
:1004E00010FF10FF141414FF141010101F00000050
:1004F00000F010FFFFFFFFFFF0F0F0F0F0FFFFFF54
:100500000000000000FFFF0F0F0F0F0F38444438AA
:10051000447C2A2A3E147E02020606027E027E02E5
:1005200063554941633844443C04407E201E200604
:10053000027E020299A5E7A5991C2A492A1C4C7241
:1005400001724C304A4D4D303048784830BC625AC8
:10055000463D3E494949007E0101017E2A2A2A2A58
:100560002A44445F444440514A444040444A514034
:100570000000FF0103E080FF000008086B6B0836F5
:1005800012362436060F090F060000181800000066
:100590001010003040FF0101001F01011E00191D55
:1005A0001712003C3C3C3C0000000000F0F89C8E20
:1005B0008783878E9CF8F00000FEFF03030303038C
:1005C000070EFCF80000FEFF0303030303070EFC05
:1005D000F80000FFFF00000000000000FFFF000027
:1005E000FEFF8383838383C7EE7C380000F8FC0E14
:1005F00007030303070EFCF800003F7FE0C0808084
:10060000C0E07F3FFFFF01010101010101FFFF0089
:1006100000FFFF0C0C0C0C1C3E77E3C100007FFFB9
:10062000C0C0C0C0C0E0703F1F00001F3F70E0C0EE
:10063000C0C0E0703F1F00007FFFC1C1C1C1C1E366
:10064000773E1C00001F3F70E0C0C0C0E0703F1F3D
:10065000000000000001FFFF01000000D5F08D1434
:10066000A1C881CFD9F1AF2000390788A4AAE46CD2
:100670005255F2E652AE2A551557A7AA521D59A750
:10068000AA521D8EE49DEBA444515AAAE8A44AA59F
:1006900024B554959C4DEA745C4E55D6517DAE53AD
:1006A0009209391F9C73CE39E79C73CE39E79C734E
:1006B000CE39E79C934A2ABB0E5B4B259573CE3906
:1006C000E79C73CE39E79C73524965C79173CE3965
:1006D000E7A4924A2AA9A4924A2AA9F0C48FC7344F
:1006E0006F9A1741E84BF3F32248A7D3E9743A1DF8
:1006F000E976BB75555FF5555FA5AA5255A9AA5471
:1007000055AA2A5595AA4A55A52A77B9ED3634A592
:10071000B797BBDC55AA2A5595AA4A55A5AA5255A2
:10072000A9AABEEACB5D6E1B7D7A7BB9CB5DA5AA7B
:100730005255A9AA5455AA2A5595AAEAABBEDC3649
:100740007EA72AEBA8A4AAE44D25552AA7B89C4F5A
:10075000492AA9AA72159754A994A4FA5CA7248ED1
:1007600094AB4A554525552AE7A84A51A5A58AAE16
:10077000149554A994A4922AEF28012020484152AC
:10078000442028347834290A0A0020204D45444961
:10079000554D2028337833290A0A0020204541533B
:1007A000592028327832290A0A0043484F4F5345CE
:1007B00020444946464943554C54593A0A0A000ACE
:1007C00042202D204241434B000A0A41202D204E59
:1007D0004558540053434F52453A0A00444F4E4542
:1007E000210A00080B0002020200000904000001B7
:1007F0000202000005240010010524010101042467
:1008000002060524060001070581031000400904C3
:100810000100020A0000000705020240000007056F
:1008200083024000000403090412010002EF0201E8
:100830004041233680000101020301417264756961
:100840006E6F204C4C430041726475696E6F204C92
:10085000656F6E6172646F00F61011241FBECFEFDA
:10086000DAE0DEBFCDBF13E0A0E0B1E0EAE1F1E302
:1008700002C005900D92A631B107D9F727E0A6E195
:10088000B3E001C01D92AF3AB207E1F714E0CDE248
:10089000D4E004C02197FE010E948518CC32D10714
:1008A000C9F70E9433110C948B180C940000EFE3ED
:1008B000F3E0A0E0B8E000800EBC8111012C11979C
:1008C000A0FDFDCF0192B9F70DB40895480F592F3F
:1008D000511D1416150684F5803891056CF597FFA7
:1008E00002C090E080E04138510514F040E850E04B
:1008F000481BFB01E770FF2721E001C0220FEA95AA
:10090000EAF777FF02C0695F7F4FFB0133E0F5959F
:10091000E7953A95E1F7F695FE2FEE27F795E795DF
:10092000E80FF91FE15CFC4F415030F08191DF018D
:100930001197822B8C93F8CF0895FC0180913E0390
:10094000882311F13FB7F89482E08093E900209169
:10095000F200822F90E01816190614F481E090E05E
:10096000882339F0289844E640933D034091F100F4
:100970004083222339F02091F200211103C02BE69D
:100980002093E8003FBF08958FEF9FEF08952FB7A2
:10099000F89483E08093E9009091E800892F8072B9
:1009A00095FF04C09091F20080E4891B2FBF089549
:1009B0008091350381110DC082E08093310384E082
:1009C00080933203109234031092330381E08093BA
:1009D000350381E393E00895CF93DF931F92CDB762
:1009E000DEB76983DC01ED91FC910280F381E02D9B
:1009F00041E050E0BE016F5F7F4F09950F90DF919E
:100A0000CF91089583E08093E9008091F2008823DC
:100A100019F08AE38093E80008950E94C70490E0EB
:100A20000895CF93DF931F92CDB7DEB7FC01848585
:100A3000958597FD08C02FEF3FEF358724870F90EE
:100A4000DF91CF910895CE0101960E949D040197F8
:100A500019F4898190E0F3CF8FEF9FEFF0CF0F93E0
:100A60001F93CF93DF931F92CDB7DEB78C01FC01AC
:100A70008485958597FF0BC0CE0101960E949D0449
:100A8000019771F4898190E0F80195878487F801D6
:100A9000848595850F90DF91CF911F910F910895D7
:100AA0008FEF9FEFF1CFFC018485958597FD0BC0FB
:100AB0009FB7F89482E08093E9008091F2009FBF95
:100AC00090E0019608959FB7F89482E08093E90042
:100AD0008091F2009FBF90E0089540912B035091C8
:100AE0002C032091290330912A0342175307B4F4B1
:100AF0009091E8009570E1F39091E80092FD19C0A3
:100B00008093F10080912B0390912C0301968F73B9
:100B10009927892B19F48EEF8093E80080912B039D
:100B200090912C03019690932C0380932B0381E0EA
:100B3000089580E00895DF92EF92FF920F931F9344
:100B4000CF93DF93D82E8A01EB017B01E40EF51ED3
:100B5000CE15DF0559F0D7FE12C0FE0184910E9428
:100B60006D0521968111F4CF0FEF1FEFC801DF91C2
:100B7000CF911F910F91FF90EF90DF9008958881A2
:100B8000EECF0F931F93CF93DF931F92CDB7DEB7B6
:100B900082E0898342E450E063EE77E080E80E94DF
:100BA0009B050E94D804DC0112960D911C91011541
:100BB000110589F0D801ED91FC910280F381E02DBF
:100BC000BE016F5F7F4FC801099597FD04C0F80112
:100BD00000851185ECCF89810F90DF91CF911F9116
:100BE0000F910895615030F02091F100FC012083B5
:100BF0000196F8CF289884E680933D0308953FB787
:100C0000F8948091250390912603A0912703B09139
:100C1000280326B5A89B05C02F3F19F00196A11DFA
:100C2000B11D3FBFBA2FA92F982F8827BC01CD0136
:100C3000620F711D811D911D42E0660F771F881F95
:100C4000991F4A95D1F708958F929F92AF92BF92C4
:100C5000CF92DF92EF92FF926B017C010E94FF0521
:100C60004B015C01C114D104E104F104B9F00E940C
:100C7000FF05681979098A099B09683E7340810557
:100C8000910580F321E0C21AD108E108F10888EE4D
:100C9000880E83E0981EA11CB11CE4CFFF90EF905A
:100CA000DF90CF90BF90AF909F908F9008958F92DC
:100CB0009F92AF92BF92CF92DF92EF92FF920F93EB
:100CC0001F93CF93DF936C017B018A0180910D010B
:100CD000882309F45CC080913E03882309F457C03F
:100CE0008091300380FF05C08091E0008260809396
:100CF000E000E801B12C8AEFA82E93E0892E2AE3C8
:100D0000922E209711F4BB20D9F10E94C7048111C3
:100D10000AC0AA94AA20D9F161E070E080E090E0D6
:100D20000E942406EECF8C171D0611F00CF08C2FBC
:100D30009FB7F8948092E9002091E80025FD02C059
:100D40009FBFDFCF282F30E0C21BD30BF7018150AC
:100D500020F041914093F100FACFE20EF31EBB2048
:100D600021F09092E800B12CEBCF8091E80085FD56
:100D7000E7CF9092E800BB24B394209709F3F3CF18
:100D80005D9884E680932F03101611063CF081E0F5
:100D900090E0F6019383828310E000E0C801DF91C8
:100DA000CF911F910F91FF90EF90DF90CF90BF9068
:100DB000AF909F908F900895AF92BF92CF92DF92A5
:100DC000EF92FF920F931F93CF93DF936C017B0100
:100DD0008B01040F151FEB015E01AE18BF08C01791
:100DE000D10759F06991D601ED91FC910190F08104
:100DF000E02DC6010995892B79F7C501DF91CF91C7
:100E00001F910F91FF90EF90DF90CF90BF90AF9028
:100E100008952D9A0895BC0190E080E00C9424067A
:100E20008FB18095807F669B88601C9B846008954D
:100E300080E0EFE3F3E081118FEF00248193819351
:100E4000819381930394D1F71092190310921803A0
:100E500010921B0310921A03089590911603982381
:100E600029F490911703982381E009F480E0089514
:100E700080E00C9457041F93CF93DF93DC0130E0A4
:100E800020E050E040E011E0C1E0D0E02617370755
:100E900091F114968C911497811115C014961C939E
:100EA000149712968D919C911397ED91FC91119747
:100EB000E80FF91FE4911596EC9315970196139698
:100EC0009C938E93129714969C91149715968C91DF
:100ED0001597892349F0FE01022E02C0EE0FFF1F75
:100EE0000A94E2F74E2B5F2B990F14969C9314975C
:100EF0002F5F3F4FCBCFCA01DF91CF911F91089554
:100F00002F923F924F925F926F927F928F929F9219
:100F1000AF92BF92CF92DF92EF92FF920F931F9307
:100F2000CF93DF93CDB7DEB72A970FB6F894DEBF25
:100F30000FBECDBF8C017A8369831C821B821D8208
:100F40001E8268E070E0CE0101960E943B074C01D2
:100F500068E070E0CE0101960E943B077C0161E0F1
:100F600070E0CE0101960E943B072DED82162FEF17
:100F700092060CF4A9C097012F5F3F4FA901400FC3
:100F8000511F141615060CF09FC0380147E064226B
:100F90007724A801F3E055954795FA95E1F758872E
:100FA0004F83890137FF02C0095F1F4FE3E01595AA
:100FB0000795EA95E1F727703327232B11F00F5F90
:100FC0001F4F582E22242394412CF12CE12CD12C9C
:100FD000C12C88E090E09C01261937093A872987BF
:100FE000C016D1060CF070C0AA24A394B12C61E005
:100FF00070E0CE0101960E943B07892B21F432E07C
:10100000A30EB11CF4CFB501CE0101960E943B079F
:1010100001965C0130E020E02A153B0508F051C044
:1010200051104228A22DAA0F09F048C04F815885BF
:101030004C0D5D1DCA010196099768F58DE5E8160E
:10104000F1044CF5CA019695982F882797958795B6
:1010500083968E0D9F1D642D70E0FC01E15CFC4FBA
:101060001B01062C01C0220C0A94EAF7B081B229B8
:10107000B0836114710479F04730510561F0FC01CF
:10108000E154FC4F098402C0759567950A94E2F714
:101090004080642960839FEFE91AF90A222423948F
:1010A0008E149F043CF44FEFC41AD40A22242394D4
:1010B000F12CE12C2F5F3F4F4A2EAECF2A2EA42DCC
:1010C000F9CF51E055268CCF2A960FB6F894DEBFA3
:1010D0000FBECDBFDF91CF911F910F91FF90EF9089
:1010E000DF90CF90BF90AF909F908F907F906F9048
:1010F0005F904F903F902F90089580389105B8F4FD
:1011000060347105A0F420E191E061FD94E060FDA0
:10111000990F62FD9295687F269FD0011124A80F38
:10112000A15CBC4F8C9140FF03C0892B8C93089528
:1011300090958923FBCF2F923F924F925F926F92AF
:101140007F928F929F92AF92BF92CF92DF92EF9257
:10115000FF920F931F93CF93DF937C016B01882441
:101160008394912CD0E0C0E003E010E09AEF692E68
:1011700077247A942EEFA22EBB24BA94842F847005
:10118000582E842F8270482E842F8870382E4170FC
:10119000242E219682E0880E911CA80CB91C5520A3
:1011A00091F041E0B8016C0D7D1DC7018C0F9D1FB2
:1011B0000E947D0841E0B6016C0F7D1FC8018E0DB5
:1011C0009F1D0E947D08442091F041E0B601601B04
:1011D000710BC7018C0F9D1F0E947D0841E0B60175
:1011E0006C1B7D0BC8018E0D9F1D0E947D08332056
:1011F00091F041E0B6016C0F7D1FC701801B910B80
:101200000E947D0841E0B8016C0D7D1DC7018C1B5B
:101210009D0B0E947D08222091F041E0B6016C1BDD
:101220007D0BC701801B910B0E947D0841E0B60138
:10123000601B710BC7018C1B9D0B0E947D08C017A2
:10124000D1076CF48FEFA816B80609F4A2CF0150AD
:10125000110982E0680E711CA60CB71C9ACFDF91B1
:10126000CF911F910F91FF90EF90DF90CF90BF90A3
:10127000AF909F908F907F906F905F904F903F9036
:101280002F900895EF92FF920F931F93CF93DF93C8
:101290007C018B01040F111DEB0177FF02C0D0E030
:1012A000C0E0C8010134110514F080E490E0C817D3
:1012B000D9073CF441E0BE01C7010E947D08219698
:1012C000F0CFDF91CF911F910F91FF90EF90089594
:1012D0002F923F924F925F926F927F928F929F9246
:1012E000AF92BF92CF92DF92EF92FF920F931F9334
:1012F000CF93DF9300D000D000D0CDB7DEB76B83A3
:101300007C83298325E0429FA0011124FA01E45542
:10131000FF4F2F01F12C3C0110E0312C153029F04A
:10132000C2010196F20134902C01FB81FD832C81D6
:101330002E8388E0282E30FE1DC039813A8301C0FB
:101340000A83D12CC12CEC14FD04B9F04601860CA3
:10135000971CB12CA12CAE14BF04C1F16D817E810C
:101360006A0D7B1D4A81C4010E947D089FEFA91A66
:10137000B90AF1CF89810813E3CF36942A942D81DD
:101380003E812E0D3F1D3E832D832110D4CF1F5F44
:101390006E0C7F1C163009F0C0CF26960FB6F8945D
:1013A000DEBF0FBECDBFDF91CF911F910F91FF9098
:1013B000EF90DF90CF90BF90AF909F908F907F90F5
:1013C0006F905F904F903F902F900895EFEFCE1A5F
:1013D000DE0AB9CF2F923F924F925F926F927F9227
:1013E0008F929F92AF92BF92CF92DF92EF92FF9235
:1013F0000F931F93CF93DF9300D01F92CDB7DEB72B
:101400008091A807811105C08091A907882309F45C
:101410004CC0E091A307F091A40740919F07509121
:10142000A0079EEFE417F5070CF092E06091A50786
:101430007091A6072091A1073091A2078EEF621745
:1014400073070CF082E0A091AA07AA2331F097FD60
:101450009F5F959587FD8F5F8595E417F50741F0B0
:10146000490F511D97FD5A955093A00740939F0730
:101470006217730741F0280F311D87FD3A953093AD
:10148000A2072093A10780919F079091A007E817DA
:10149000F90759F48091A1079091A207681779077D
:1014A00021F41092A8071092AA071982212C312C3E
:1014B00021012394E09194074091A1075091A20744
:1014C00080919F079091A0076BE96E9F9001112476
:1014D000F901E75EFE4F62817981761708F0FBC063
:1014E000E72FF0E0DF011596AA0FBB1FA20FB31F75
:1014F000A75EBE4F6C91A62F0A2E000CBB0BA41B3F
:10150000B50BBB83AA83EE0FFF1FE20FF31FE75E4D
:10151000FE4F0185002E000C110B081B190B7D01DD
:10152000B2E0EB1AF1084091990750919A07609147
:101530009B0770919C07D201C101098004C0880FEC
:10154000991FAA1FBB1F0A94D2F784239523A623B1
:10155000B723098004C0B695A795979587950A94F7
:10156000D2F798012E5F3F4F5901A801425051090F
:101570006A010197A105B10509F03FC045E0B70137
:10158000C8010E94420948015FEF851A950A45E0AB
:10159000B701C4010E9442096A817B8161507109CF
:1015A0007B836A8343E0C5010E944209015011090F
:1015B00045E0B701C8010E94420943E06A817B818E
:1015C000C6010E94420943E06A817B81C5010E94F5
:1015D000420945E0B701C4010E94420943E06A8123
:1015E0007B81C6010E94420945E0B701C8010E9403
:1015F000420979817F5F79835DCF41E06A817B8198
:101600006E5F7F4FC8010E947D0841E0B701C801AD
:101610000E947D0841E06A817B81C5010E947D08AE
:1016200041E06A817B81C6010E947D08CC24C3947D
:10163000D12C32E0E32EF12CAA80BB80AE0CBF1C73
:101640004601800E911E41E0B501C4010E947D0853
:1016500038016C187D0841E0B501C3010E947D0886
:10166000AA80BB80AE18BF0841E0B501C4010E944A
:101670007D0841E0B501C3010E947D08AA80BB80BE
:10168000AC0CBD1C48018E0C9F1C41E0B501C4018F
:101690000E947D0838016E187F0841E0B501C30142
:1016A0000E947D08AA80BB80AC18BD0841E0B5014E
:1016B000C4010E947D0841E0B501C3010E947D087C
:1016C0008FEFC81AD80AEA94EF2809F492CFEE24D3
:1016D000E394F12CB1CFA181A983412C0A2F10E012
:1016E0001801B1E02B1A3108242D30E03B832A8306
:1016F000221533050CF0ABC0C9010196809F300163
:10170000819F700C909F700C11245301A01AB10A94
:10171000F12CE12C35E0630E711C660C771C650121
:1017200045E0C40ED11CCC0CDD1C4091940750E068
:101730008091A1079091A20780909F079090A007A9
:101740006981E61608F081C07BE9749F9001759F5E
:10175000300D1124D301A20FB31FA75EBE4FF601B7
:10176000E20FF31FE75EFE4F5C904081541AA4EF36
:101770005A0EEA81FB813596EE0FFF1FE20FF31F31
:10178000E75EFE4F6081062E000C770B681B790B1D
:101790006034710500F5EA81FB81EE0FFF1FE20F57
:1017A000F31FE75EFE4F81854A815B814F5F5F4F8C
:1017B000440F551F240F351FF901E75EFE4F44EF1C
:1017C000481B9185490F082E000C990B0696881925
:1017D00099090E94660480919407F701EA0DFB1DA8
:1017E000DF011596AA0FBB1F2BE9289FC00111240A
:1017F000A80FB91FA75EBE4F6C91062E000C770B89
:101800006A5F7F4F2091A1073091A207621B730B83
:10181000EE0FFF1FE80FF91FE75EFE4F8185082ED0
:10182000000C990B20919F073091A007452D821B3A
:10183000930B0E9442093FEFE31AF30A4A815B814E
:10184000400F511F5B834A8370CF43944DCFE0918B
:10185000940780919D0790919E07DC011596AA0F31
:10186000BB1F5BE9E59F90011124A20FB31FA75E88
:10187000BE4F6C91A62F0A2E000CBB0B4091A10706
:101880005091A207A41BB50BBB83AA83BD01645072
:101890007109FC01EE0FFF1FE20FF31FE75EFE4F21
:1018A0000185002E000C110B80919F079091A007DD
:1018B000081B190B5801B4E0AB1AB108780121E0FC
:1018C000E21AF1086034710520F443E0C7010E9478
:1018D00066046A817B816C5F7F4F6034710520F400
:1018E00043E0C7010E946604CA80DB8031E0C31A6E
:1018F000D10843E0B601C5010E94420943E0B601A8
:10190000C80104960E94420941E0B601C7010E9445
:101910009B080F5F1F4F42E0B601C8010E949B0861
:101920004A815B814F5F5F4F5B834A8344E06A81FA
:101930007B81C8010E949B0848E06A817B81C701C6
:101940000E949B0810E07BE9F72E2091940730E07D
:10195000F29EC001F39E900D1124FC01E75EFE4F44
:101960004381141708F05EC0E12FF0E0AF01440F8F
:10197000551F440F551F480F591F4C585E4F8090FC
:10198000950790909607A0909707B0909807DA0176
:101990004D915D916D917C91D501C4018423952376
:1019A000A623B72340E00097A105B10541F0582FC9
:1019B0005170450FB695A79597958795F4CF405DE3
:1019C000DF015E96AA0FBB1FF29EC001F39E900D31
:1019D0001124A80FB91FA75EBE4F6C91062E000CF4
:1019E000770B2091A1073091A207621B730B635004
:1019F0007109EE0FFF1FE80FF91FE75EFE4F83AD81
:101A0000082E000C990B20919F073091A007821B94
:101A1000930BEE24E39400E021E002970E94680912
:101A20001F5F93CF0F900F900F90DF91CF911F9179
:101A30000F91FF90EF90DF90CF90BF90AF909F906D
:101A40008F907F906F905F904F903F902F90089570
:101A5000EF920F93CF93DF93462F6D3081F060911B
:101A60001803709119034A3089F410921B031092E5
:101A70001A03685F7F4F709319036093180381E026
:101A800090E0DF91CF910F91EF900895C0911A03EC
:101A9000D0911B03EE24E39400E021E0CE010E94EC
:101AA00068092696D0931B03C0931A03E8CF0F93BF
:101AB0001F93CF93DF938C01D0E0C0E0F801EC0FCF
:101AC000FD1F6491662341F08FE897E00E94280D86
:101AD000892B11F02196F2CFCE01DF91CF911F918A
:101AE0000F910895089590E080E008952E9A0E9445
:101AF00009072F9A08950C94E417FF920F931F93F0
:101B0000CF93DF93EC01F62E08811981C8010E9462
:101B1000E417F81621F06F2DC8010E94EC17CE01D2
:101B2000DF91CF911F910F91FF9008950F931F9315
:101B3000CF93DF9300D0CDB7DEB780E190E09A83FA
:101B4000898364E4CE0101960E947D0D81E190E0DD
:101B50009A83898360E3CE0101960E947D0D82E124
:101B600090E09A83898364E5CE0101960E947D0D01
:101B700083E190E09A8389830FE817E0F801648D90
:101B8000CE0101960E947D0D84E190E09A838983C5
:101B9000F801658DCE0101960E947D0D81E0F8016E
:101BA000868F0F900F90DF91CF911F910F91089525
:101BB0001F920F920FB60F9211248F939F938091D3
:101BC000E1009091E100937F9093E10083FF0FC0CB
:101BD0001092E90091E09093EB001092EC0092E3F8
:101BE0009093ED0010923E0398E09093F00082FFF6
:101BF00022C093E09093E9009091F200992319F0AC
:101C00009AE39093E80090912F03992341F09091EB
:101C10002F03915090932F03911101C05D9A9091E1
:101C20003D03992341F090913D03915090933D03E2
:101C3000911101C0289A84FF18C08091E2008E7E25
:101C400081608093E2008091E1008F7E8093E100CB
:101C5000809130038E7E8061809330039F918F91BD
:101C60000F900FBE0F901F90189580FFF7CF8091B7
:101C7000E2008E7E80618093E2008091E1008E7EA2
:101C80008093E100809130038E7E8160E5CF1F92CA
:101C90000F920FB60F921124CF92DF92EF92FF9224
:101CA0000F931F932F933F934F935F936F937F9364
:101CB0008F939F93AF93BF93EF93FF93CF93DF9354
:101CC000CDB7DEB76C97DEBFCDBF1092E900809133
:101CD000E80083FF25C068E0CE0145960E94F2052A
:101CE00082EF8093E8008D8987FF39C09091E800EA
:101CF00090FFFCCF982F907609F034C19E894F89D0
:101D0000588D2F89F88C911131C0803861F5809100
:101D10002E038093F1001092F1008EEF8093E80083
:101D20006C960FB6F894DEBF0FBECDBFDF91CF919A
:101D3000FF91EF91BF91AF919F918F917F916F91A3
:101D40005F914F913F912F911F910F91FF90EF90D5
:101D5000DF90CF900F900FBE0F901F9018959EEFC1
:101D60009093E800C7CF1092F100D5CF913059F48D
:101D70008111D3CF4130510581F680912E038D7FA3
:101D800080932E03CACF933049F48111C6CF4130DE
:101D9000510519F680912E038260F2CF953041F4FF
:101DA0008091E80080FFFCCF20682093E300B5CF4E
:101DB000963009F0A9C00B8D1C8D22E01092E9002D
:101DC00010922C0310922B03F2122EC010922A03B1
:101DD000109229030E94C1051F8299E09983FA821B
:101DE00091E09E8390EA98879AEF998720912B0340
:101DF00030912C03275F3F4F3C832B838D831092C0
:101E0000E90010922C0310922B0310932A030093E5
:101E1000290349E050E0BE016F5F7F4F80E00E94E0
:101E20009B050E94C10579CF10932A0300932903D3
:101E30000E94D804DC0112960D911C910115110528
:101E400009F451C1D801ED91FC910480F581E02D98
:101E5000BE016B5E7F4FC8010995009709F03EC136
:101E6000F80100851185EACFF3E0FF120EC08F89DB
:101E7000882309F440C0823061F440E860E187E4DF
:101E800098E00E94C310811148CF81E28093EB005B
:101E900047CF813029F440E86BE08BE398E0F1CF45
:101EA000833099F70E94D804DC011296ED90FC90E3
:101EB0008E010F5F1F4F6801E114F10479F0D70123
:101EC000ED91FC910680F781E02DB801C7010995DD
:101ED000080F111DF701E084F184EECFD8011C92A8
:101EE000F60101900020E9F73197BF016C197D09D7
:101EF00040E0C601C6CF65E278E0FB01449150E0C6
:101F000080E80E949B0509CF973009F4BECF983036
:101F100021F481E08093F10000CF993009F0FDCEEB
:101F2000837009F0B2CFE3E1F1E081E031E096E3C4
:101F30002191222371F08093E9003093EB00DF01BF
:101F400011972C912093EC009093ED008F5F8730D8
:101F500079F78EE78093EA001092EA008F898093E8
:101F60003E03DBCE8B8D9C8D1092E90010922C03EA
:101F700010922B0390932A0380932903898D81115A
:101F800092C08E899D89913A49F4813209F07DCFC2
:101F900047E050E066E071E080E0B3CF913209F0B5
:101FA00074CF833269F48F89988DB0E0A0E080937C
:101FB000020190930301A0930401B0930501ADCEFB
:101FC000803269F48091E80082FFFCCF67E086E010
:101FD00091E00E94F2058BEF8093E8009ECE823262
:101FE00009F09BCE8F8980930D01EEEFFFE785917D
:101FF00094918B3F9C4D51F1E0E0F8E08091060117
:1020000090910701A0910801B0910901803B944093
:10201000A105B105F1F480910D0180FD1AC0EE3FDC
:102020008AE0F80789F587E797E7918380838091B5
:10203000600080932D0388E19BE00FB6F894A8958B
:10204000809360000FBE9093600067CEEEEFFAE0E1
:10205000D5CF808191818737974709F05ECEA895CB
:102060008091600088618093600080912D0380934F
:102070006000EE3F2AE0F20789F08091FE0A90911D
:10208000FF0A9183808349CE8081918187379807A9
:1020900051F29093FF0A8093FE0AC5CF1092FF0A77
:1020A0001092FE0A3ACE0E94D804DC0112960D91DD
:1020B0001C910115110509F4E8CED801ED91FC91B0
:1020C0000190F081E02DBE016B5E7F4FC801099544
:1020D000811123CEF80100851185EBCF1816190662
:1020E0000CF41BCED2CEF1E0FF12BECE69E278E056
:1020F00004CF1F920F920FB60F9211242F933F938C
:102100008F939F93AF93BF9380912103909122036C
:10211000A0912303B09124033091200323E0230FE7
:102120002D3758F50196A11DB11D209320038093F2
:10213000210390932203A0932303B093240380915F
:10214000250390912603A0912703B09128030196BF
:10215000A11DB11D8093250390932603A09327030F
:10216000B0932803BF91AF919F918F913F912F9191
:102170000F900FBE0F901F90189526E8230F029620
:10218000A11DB11DD2CFEF92FF920F931F93CF935A
:10219000DF93F82E192FE62E042F81E0860F880F8B
:1021A0000E946D0583E00E946D05CF2DD12FEC0EAE
:1021B000FD2EF11CCE15DF05B9F007FF13C0FE019F
:1021C00084910E946D05182F80E00E946D05812387
:1021D00021968111EFCFDF91CF911F910F91FF9049
:1021E000EF9008958881EDCF81E0F5CFEFE3F7E040
:1021F0001382128288EE93E0A0E0B0E0848395839E
:10220000A683B7838EEE92E0918380838FEF9FEF5A
:1022100095878487EFE8F7E01382128280E093E0ED
:102220009183808315828AE994E3A0E0B0E08683FD
:102230009783A087B1871286138614861586178622
:102240001686118A108A138A128A158A148A178AA6
:10225000168A118E128E81E0838F158E148E168E43
:1022600088E184830895CF93DF93CDB7DEB7A49739
:102270000FB6F894DEBF0FBECDBF789484B58260F0
:1022800084BD84B5816084BD85B5826085BD85B51A
:10229000816085BD80916E00816080936E00109298
:1022A0008100809181008260809381008091810013
:1022B00081608093810080918000816080938000A4
:1022C0008091910082608093910080919100816063
:1022D0008093910080919000816080939000809124
:1022E000C10084608093C1008091C10082608093AE
:1022F000C1008091C10081608093C1008091C300C2
:1023000081608093C3008091C00082608093C00090
:102310008091C20081608093C20080917A008460C5
:1023200080937A0080917A00826080937A00809115
:102330007A00816080937A0080917A00806880932F
:102340007A0010923E0310922E0310923003809177
:10235000D70081608093D70080EA8093D80089B548
:10236000806189BD89B5826089BD09B400FEFDCF59
:1023700061E070E080E090E00E9424068091D80047
:102380008F7C80618093D8008091E000807F809373
:10239000E0008091E1008E7E8093E1008DE08093EB
:1023A000E200559A209A81EC80937C0085B1806F81
:1023B00085B984B1877E84B984B1876E84B95E9A09
:1023C0005F988AB1806D8AB9769A6E9881B3806F72
:1023D00081BB899880B38D7080BB80E58CBD81E026
:1023E0008DBD85E090E00E940B075F9A85E090E04C
:1023F0000E940B075E985C98ECE5F6E089E696E0B3
:1024000024912EBD00000DB407FEFDCF31968E172E
:102410009F07B1F75C9A81E8809364008091650022
:102420008160809365000E9438070E94100702E0D7
:1024300010E087FF15C05C9885EA8EBD00000DB4E2
:1024400007FEFDCF5C9A2E982F982D9880916400FE
:1024500080628093640081E083BF889513BEFCCFC7
:102460000E94100782FF40C02D980E9410078478B8
:102470008438C1F40E94090788EC90E00E940B07A1
:102480002F981A8309836FEFCE0101960E947D0D6C
:1024900084EF91E00E940B072F9A0E941007847826
:1024A0008438D9F30E94100784718431C1F40E94EA
:1024B000090788EC90E00E940B072E981A83098385
:1024C00060E0CE0101960E947D0D84EF91E00E94B4
:1024D0000B072E9A0E94100784718431D9F388EC7F
:1024E00090E00E940B07BCCF0E94090782E090E0B9
:1024F0000E947B0D882309F47DC03E9A3F9A81E0BB
:1025000090E00E947B0D082F0470502E81FF0FC0B9
:1025100001112E9801EF1FEF88E0A82EB12C0E9428
:10252000100786FF6AC02E9A2F9A0E94090782E33D
:1025300090E00E940B070E9410078111F8CF609174
:10254000930770E088EE93E00E9471186093010198
:10255000809164008E7F8093640080917A00806413
:1025600080937A0080917A0086FDFCCF00917800FC
:10257000109179000E94FF05AB01BC01C801B0E0D9
:10258000A0E0DC01992788278C019D01040F151F0D
:10259000261F371FC901B8012091640021602093D4
:1025A0006400611571058105910511F00E94DB172A
:1025B0001092AE07DD24D394FF24F39443E0C42E9D
:1025C0001BE98FB7F8944091210350912203609149
:1025D0002303709124038FBF80911E03882309F485
:1025E000D7C010921E0320E030E0232B51F30E944D
:1025F0000000E6CF3E983F9882CF552029F0043066
:10260000110511F42E9A2F9881E00E945704980129
:1026100017FF04C022273327201B310B27703327D5
:10262000C80117FD0796B3E095958795BA95E1F730
:1026300017FF05C00197A501421B530B9A01BC016E
:102640007695762F662777956795F12CE12C150105
:10265000221A330A8E3F5FEF950709F447C0A8E5B9
:10266000AE9D4001AF9D900C1124DB01A15CBC4FDD
:1026700050E040E0F401E455FA4F4F01FB01E15412
:10268000FC4F3F018F3F980781F0F401E40FF51FE5
:10269000E491022E01C0EE0F0A94EAF75496FC91E1
:1026A0005497EF2B5496EC93549721153105C1F0B4
:1026B000F401E40FF51F44906301C40ED51EE42D10
:1026C000F0E0022C02C0F595E7950A94E2F7FBA32F
:1026D000EAA3F601F489FCA34AA04F2AF601448A32
:1026E0004F5F5F4F11964835510561F6019660586E
:1026F0007F4FEA94EF2809F047C00E9438078FE027
:1027000090E00E940B070F5F1F4F0931110509F080
:1027100006CF552011F02F9A2D9880E991E00E9464
:102720000B070E94090781E090E00E947B0D80FF6B
:10273000FECE8AE090E00E947B0D9FEF980F9E3FB7
:1027400008F0F5CE22E330E030931B0320931A0308
:1027500028E330E030931903209318030BE010E0D6
:10276000682F8FE897E00E94280DC8010E947B0D1A
:102770000F5F1F4F0131110599F70E94380788EE4E
:1027800093E00E940B07D3CEEE24E394F12C62CFAA
:1027900080911F03242F281B822F9091010129175C
:1027A00040F48F5F891708F01ECFD3BE889513BE03
:1027B0001ACFF0921E0340931F0380911C03909147
:1027C0001D03019690931D0380931C0380911703B2
:1027D000809316030E941007809317038091AE0721
:1027E000823009F4FDC0C0F4882309F47EC0813032
:1027F00009F0F9CE88E00E942D0700E0811108E081
:1028000084E00E942D07811103C0002309F49DC0BC
:1028100052E05093AE07E7CE843009F4BDC108F40E
:1028200035C1853009F0DFCE8091AD07811115C02B
:10283000E09194071E9FF0011124E75EFE4F808512
:102840002091AB073091AC07820F932F911D90938D
:10285000AC078093AB070E94960D0E9418078CED81
:1028600097E00E94570D84ED97E00E94570D20914C
:10287000AB073091AC0750E040E019A25E0171E275
:10288000A70EB11CCA01B9012AE030E040E050E0D7
:102890000E942C18605DD5016E935D0121153105F4
:1028A0004105510579F7109769F0FD01019000206D
:1028B000E9F73197AF014A1B5B0BBD018FE897E049
:1028C0000E94DC0689EC97E00E94570D8FEB97E0A1
:1028D0000E94570D88E00E942D07882309F46CC2DE
:1028E000C092AE070E94760D7ECEF092AE0733E620
:1028F0003093A70780E190E00E947B0DE82E81E1F4
:1029000090E00E947B0D082F82E190E00E947B0DF9
:1029100044E4E41213C0003389F4843579F483E18C
:1029200090E00E94E4178093AB0784E190E00E945E
:10293000E4178093AC071092AD0755CE1092AC0708
:102940001092AB070E94960DF6CF0E9418070E94C6
:1029500010078079803951F48091AD0781112FC023
:102960001092AC071092AB070E94960D80919307CE
:1029700090E0880F991F63E070E00E9471188091C9
:102980001C0390911D030E945D18892B29F48091EE
:1029900000018D258093000162EA76E08AE090E0F4
:1029A0000E94800780910001882331F069E676E07B
:1029B00084E390E00E9480070E94380714CE1092B2
:1029C0001B0310921A0310921903109218034CE083
:1029D00050E068E073E08FE897E00E94DC06C6CF25
:1029E0008091A707833611F41092A7070E94180759
:1029F0008AEA97E00E94570D8BE997E00E94570DF5
:102A00008AE897E00E94570D8BE797E00E94570DE8
:102A1000B090A7076B2D70E06F5F7F4F24E0660FCB
:102A2000771F2A95E1F7EE24E39400E021E04AE2E3
:102A300084E090E00E94680980E80E942D078823C6
:102A400041F08091A707882321F08FEF8B0D8093B1
:102A5000A70780E10E942D07882339F08091A707FE
:102A6000823018F4B394B092A70788E00E942D0733
:102A7000882319F0C092AE079FCF84E00E942D07F3
:102A8000882309F499CF1092AE0796CFE091A7075B
:102A9000E33609F4BDCEE09394071E9FF0011124A4
:102AA000E75EFE4F84809580A680B78081E090E04D
:102AB000A0E0B0E062E086169104A104B1047CF0CD
:102AC0000E948C17A5019401215031094109510937
:102AD0000E94FA17DC01CB010196A11DB11D809364
:102AE000950790939607A0939707B0939807109235
:102AF0009E0710929D071092A00710929F071092B8
:102B0000A2071092A1071092A4071092A307109297
:102B1000A6071092A507E09194071E9F900111242B
:102B2000F901E75EFE4F8081882331F18281E82F31
:102B3000F0E0DF011197AA0FBB1FA20FB31FA75E22
:102B4000BE4F19964C91042E000C550B4054510960
:102B50005093A00740939F073496EE0FFF1FE20F9C
:102B6000F31FE75EFE4F8081082E000C990B8097C3
:102B70009093A2078093A1071092990710929A0749
:102B800010929B0710929C071092A907F092AA0737
:102B900084E08093AE07CFCE80E20E942D07882389
:102BA00061F080919D0790919E07181619062CF4EC
:102BB000019790939E0780939D0780E40E942D07C4
:102BC00020909407A22CB12C8823A9F080919D0716
:102BD00090919E0701961A9DF0011B9DF00D112406
:102BE000E75EFE4F22812817190629F024F0909302
:102BF0009E0780939D0780E10E942D078823C1F0E6
:102C00001A9DF0011B9DF00D1124E75EFE4F81819E
:102C100020919D0730919E07820F932F911D228155
:102C20002817190629F024F090939E0780939D079A
:102C300080E80E942D078823A1F01A9DF0011B9DBA
:102C4000F00D1124E75EFE4F218180919D07909148
:102C50009E07821B910997FD04C090939E07809365
:102C60009D0788E00E942D0720919D0730919E07C7
:102C7000882301F18091990790919A07A0919B0771
:102C8000B0919C0741E050E060E070E0022E04C08B
:102C9000440F551F661F771F0A94D2F78427952784
:102CA000A627B7278093990790939A07A0939B072D
:102CB000B0939C07F901EE0FFF1F1A9DC0011B9DE9
:102CC000900D1124E80FF91FE75EFE4F4185042E99
:102CD000000C550B405451095093A4074093A3078F
:102CE000F9013596EE0FFF1FE80FF91FE75EFE4F63
:102CF0002081022E000C330B205231093093A6079D
:102D00002093A507FC01E75EFE4F80818093A80712
:102D100003818090950790909607A0909707B090B8
:102D200098074090990750909A0760909B07709081
:102D30009C07219E1001112430E020E0201708F0AC
:102D40009AC0F901EE0FFF1FEE0FFF1FE20DF31DFA
:102D5000EC58FE4F80819181A281B381AC01BD010D
:102D6000482159216A217B21F0E041155105610577
:102D7000710541F0E42FE170FE0F76956795579548
:102D80004795F3CF84219521A621B72160E00097D4
:102D9000A105B10541F0782F7170670FB695A79521
:102DA00097958795F4CF2F5F3F4F6F1739F20E94A9
:102DB00018070E94EA0900CE84E00E942D078823AC
:102DC00019F01092AE078ECD8091940790E0189F75
:102DD000A001199F500D11249A01275E3E4FD90181
:102DE0001196EC916E2F6150770BDB01AA0FBB1F80
:102DF000A40FB51FA75EBE4F19964C91D901199625
:102E00002C91022E000C330B240F311D47FD3A95F7
:102E100037FF02C02F5F3F4F359527952056310968
:102E20003093A4072093A307EE9FF001112434965A
:102E3000EE0FFF1F189F9001199F300D1124E20F14
:102E4000F31FE75EFE4F4081275E3E4FF90182850A
:102E5000082E000C990B840F911D47FD9A9597FD44
:102E600001969595879580979093A6078093A507DF
:102E7000F092A9079ECF2F9835E03093AE0797CFF9
:102E80008F929F92AF92BF92CF92DF92EF92FF927A
:102E9000CF93DF93EC01688179818A819B816115F1
:102EA00071058105910521F464E279ED8BE597E0E8
:102EB0002DE133EF41E050E00E94FA1749015A0139
:102EC0009B01AC01A7EAB1E40E9419186B017C01D7
:102ED000ACEEB4EFA50194010E942718C60ED71ED0
:102EE000E81EF91EF7FE06C081E0C81AD108E10805
:102EF00080E8F80AC882D982EA82FB82C701B6015B
:102F00009F77DF91CF91FF90EF90DF90CF90BF90B0
:102F1000AF909F908F9008958F929F92AF92BF92A3
:102F2000CF92DF92EF92FF9260910E0170910F01AC
:102F30008091100190911101611571058105910534
:102F400021F464E279ED8BE597E02DE133EF41E088
:102F500050E00E94FA1749015A019B01AC01A7EA0F
:102F6000B1E40E9419186B017C01ACEEB4EFA5012D
:102F700094010E942718C60ED71EE81EF91EF7FE00
:102F800006C081E0C81AD108E10880E8F80AC092BA
:102F90000E01D0920F01E0921001F0921101C701D1
:102FA000B6019F77FF90EF90DF90CF90BF90AF90EA
:102FB0009F908F90089560930E0170930F018093FE
:102FC0001001909311010895F999FECF92BD81BD32
:102FD000F89A992780B50895262FF999FECF1FBA40
:102FE00092BD81BD20BD0FB6F894FA9AF99A0FBE32
:102FF00001960895052E97FB1EF400940E94111867
:1030000057FD07D00E942C1807FC03D04EF40C94F7
:10301000111850954095309521953F4F4F4F5F4F78
:10302000089590958095709561957F4F8F4F9F4F34
:1030300008950E944E18A59F900DB49F900DA49FD7
:10304000800D911D11240895B7FF0C9419180E944A
:103050001918821B930B0895A1E21A2EAA1BBB1B01
:10306000FD010DC0AA1FBB1FEE1FFF1FA217B30754
:10307000E407F50720F0A21BB30BE40BF50B661F6A
:10308000771F881F991F1A9469F76095709580952E
:1030900090959B01AC01BD01CF010895A29FB001A5
:1030A000B39FC001A39F700D811D1124911DB29F7C
:1030B000700D811D1124911D0895AA1BBB1B51E1A8
:1030C00007C0AA1FBB1FA617B70710F0A61BB70B98
:1030D000881F991F5A95A9F780959095BC01CD013D
:1030E000089597FB072E16F4009407D077FD09D0BA
:1030F0000E945D1807FC05D03EF4909581959F4F86
:103100000895709561957F4F0895EE0FFF1F05900C
:0A311000F491E02D0994F894FFCF2C
:10311A000110FFFFFFFF00E10000000000000100B6
:10312A00000000C1808100000000030904FF0100C3
:10313A0000012C0C400C540C2C20402054202C3420
:10314A004034543400000000000000000000000079
:10315A000000000000000000000000000000000065
:10316A000000000036164A16362A4A2A00000000D5
:10317A000000000000000000000000000000000045
:10318A00000000001B00000036000000D80000000C
:10319A00B001000000000000000000000000000074
:1031AA000000000000000000000000000000000015
:1031BA000000000000000000000000000000000005
:1031CA000000000000041009FFFF00000525053774
:1031DA000549055B052517371749175B1725293751
:1031EA002949295B29253B373B493B5B3B000000CA
:1031FA000000000000000000000000000000002E97
:10320A000E400E520E2E20402052202E32403252B4
:10321A00320000000000000000000000000000333F
:10322A0000000066000000CC0000003003000060CF
:10323A00060000C00C000000330000006600000019
:10324A00CC000000000000000000000000000000A8
:10325A000000000000000000000000000000000163
:10326A00051910FFFFFF010A1CFC2EFC40FC52FC52
:10327A0064FC1C0E2E0E400E520E640E1C202E20D4
:10328A004020522064201C322E32403252326432A4
:10329A001C442E44404452446444250537054905DC
:1032AA005B052517371749175B1725293729492938
:1032BA005B29253B373B493B5B3B63000000C6006B
:1032CA0000008C01000018030000600C0000C01808
:1032DA0000008031000000630000008C010000182B
:1032EA0003000030060000600C000080310000007E
:1032FA0063000000C60000008C0100000000EC041E
:10330A0057060D050205530511052F05000000009B
:10331A00280DDC06730D720D73636F72652072657A
:06332A007365740A000047
:00000001FF
