:100000000C947B060C94A3060C94A3060C94A306F4
:100010000C94A3060C94A3060C94A3060C94A306BC
:100020000C94A3060C94A3060C94C8100C943711DE
:100030000C94A3060C94A3060C94A3060C94A3069C
:100040000C94A3060C94A3060C94A3060C94A3068C
:100050000C94A3060C94A3060C94A3060C946913A9
:100060000C94A3060C94A3060C94A3060C94A3066C
:100070000C94A3060C94A3060C94A3060C94A3065C
:100080000C94A3060C94A3060C94A3060C94A3064C
:100090000C94A3060C94A3060C94A3060C94A3063C
:1000A0000C94A3060C94A3060C94A3060000000075
:1000B000003E5B4F5B3E3E6B4F6B3E1C3E7C3E1CEE
:1000C000183C7E3C181C577D571C1C5E7F5E1C0034
:1000D000183C1800FFE7C3E7FF0018241800FFE7EB
:1000E000DBE7FF30483A060E2629792926407F05AE
:1000F0000507407F05253F5A3CE73C5A7F3E1C1CC4
:1001000008081C1C3E7F14227F22145F5F005F5F83
:1001100006097F017F006689956A6060606060946F
:10012000A2FFA29408047E040810207E2010080874
:100130002A1C08081C2A08081E101010100C1E0C7F
:100140001E0C30383E3830060E3E0E060000000011
:100150000000005F00000007000700147F147F14F8
:10016000242A7F2A1223130864623649562050003D
:1001700008070300001C2241000041221C002A1C29
:100180007F1C2A08083E0808008070300008080814
:100190000808000060600020100804023E51494534
:1001A0003E00427F400072494949462141494D3352
:1001B0001814127F1027454545393C4A49493141B9
:1001C000211109073649494936464949291E000087
:1001D00014000000403400000008142241141414DC
:1001E0001414004122140802015909063E415D59C8
:1001F0004E7C1211127C7F494949363E41414122D1
:100200007F4141413E7F494949417F090909013EFA
:10021000414151737F0808087F00417F4100204021
:10022000413F017F081422417F404040407F021C33
:10023000027F7F0408107F3E4141413E7F0909094A
:10024000063E4151215E7F09192946264949493216
:1002500003017F01033F4040403F1F2040201F3FDC
:100260004038403F63140814630304780403615961
:10027000494D43007F4141410204081020004141A3
:10028000417F04020102044040404040000307084F
:100290000020545478407F2844443838444444284B
:1002A000384444287F385454541800087E090218F2
:1002B000A4A49C787F0804047800447D400020407A
:1002C000403D007F1028440000417F40007C0478BE
:1002D00004787C080404783844444438FC18242406
:1002E0001818242418FC7C08040408485454542486
:1002F00004043F44243C4040207C1C2040201C3C03
:100300004030403C44281028444C9090907C4464F9
:10031000544C44000836410000007700000041368C
:10032000080002010204023C2623263C1EA1A16112
:10033000123A4040207A3854545559215555794144
:100340002154547841215554784020545579400C1B
:100350001E527212395555555939545454593955FC
:100360005454580000457C410002457D420001453F
:100370007C40F0292429F0F0282528F07C545545AC
:10038000002054547C547C0A097F4932494949323F
:100390003248484832324A4848303A4141217A3A54
:1003A00042402078009DA0A07D39444444393D401E
:1003B00040403D3C24FF2424487E4943662B2FFCCB
:1003C0002F2BFF0929F620C0887E09032054547979
:1003D000410000447D413048484A32384040227A4A
:1003E000007A0A0A727D0D19317D2629292F2826C7
:1003F0002929292630484D402038080808080808CF
:100400000808382F10C8ACBA2F102834FA00007B27
:10041000000008142A142222142A1408950022002D
:1004200095AA005500AAAA55AA55AA000000FF00E7
:10043000101010FF00141414FF001010FF00FF1024
:1004400010F010F0141414FC001414F700FF000056
:10045000FF00FF1414F404FC141417101F10101FD5
:10046000101F1414141F00101010F0000000001FC3
:10047000101010101F10101010F010000000FF10CE
:100480001010101010101010FF10000000FF1400CA
:1004900000FF00FF00001F10170000FC04F41414FC
:1004A0001710171414F404F40000FF00F7141414C8
:1004B00014141414F700F7141414171410101F1048
:1004C0001F141414F4141010F010F000001F101F6B
:1004D0000000001F14000000FC140000F010F010D9
:1004E00010FF10FF141414FF141010101F00000050
:1004F00000F010FFFFFFFFFFF0F0F0F0F0FFFFFF54
:100500000000000000FFFF0F0F0F0F0F38444438AA
:10051000447C2A2A3E147E02020606027E027E02E5
:1005200063554941633844443C04407E201E200604
:10053000027E020299A5E7A5991C2A492A1C4C7241
:1005400001724C304A4D4D303048784830BC625AC8
:10055000463D3E494949007E0101017E2A2A2A2A58
:100560002A44445F444440514A444040444A514034
:100570000000FF0103E080FF000008086B6B0836F5
:1005800012362436060F090F060000181800000066
:100590001010003040FF0101001F01011E00191D55
:1005A0001712003C3C3C3C0000000000F0F89C8E20
:1005B0008783878E9CF8F00000FEFF03030303038C
:1005C000070EFCF80000FEFF0303030303070EFC05
:1005D000F80000FFFF00000000000000FFFF000027
:1005E000FEFF8383838383C7EE7C380000F8FC0E14
:1005F00007030303070EFCF800003F7FE0C0808084
:10060000C0E07F3FFFFF01010101010101FFFF0089
:1006100000FFFF0C0C0C0C1C3E77E3C100007FFFB9
:10062000C0C0C0C0C0E0703F1F00001F3F70E0C0EE
:10063000C0C0E0703F1F00007FFFC1C1C1C1C1E366
:10064000773E1C00001F3F70E0C0C0C0E0703F1F3D
:10065000000000000001FFFF01000000D5F08D1434
:10066000A1C881CFD9F1AF200010100000FCFC0C14
:100670000C0C8C8C0C0C0CFCFC000000003F3F3080
:10068000303031313030303F3F00000000E0FC1EA0
:100690000606868C0C1C18B8F07000040F0F181892
:1006A0001830313160707E1F0300000080E0783C1C
:1006B0000F07868E0C1C1830F0E04006070F0C1850
:1006C00018307161E0781E0F03000080C0E07038C0
:1006D0001C0E87870E1C3870E0C0800103070E1CBB
:1006E0003870E1E170381C0E07030160E0F0381843
:1006F0001C0C8686070F3CF0C080000001070F3CF1
:1007000070E0613138181C0C0707020078F898185F
:100710000C0C8C8E060E3EFCC000000000077F789B
:10072000703031313018181F1F0C001010000000FD
:10073000F0F8181898981818F8F000000000000059
:100740000F1F1818181918181F0F000000000000BC
:100750000000C02020A020C0000000000000000019
:100760000000030404040403000000000000000073
:100770000000000080800000000000000000000079
:100780000000000001010000000000000000000067
:1007900010C0000020200000200000000000000029
:1007A0001001080809000007200000000000008078
:1007B000040000000200000004000080000000109F
:1007C00000000040000000002000040000390788FD
:1007D000A4AAE46C5255F2E652AE2A551557A7AAC0
:1007E000521D59A7AA521D8EE49DEBA444515AAA4A
:1007F000E8A44AA524B554959C4DEA745C4E55D6A0
:10080000517DAE5392094C1F71E49C73CE39E79C25
:1008100073CE39279DD35B25A5E276DB745CCA399C
:10082000E79C73CE39E79C934EA7B7CE71BB6D3A68
:10083000AEA5924A2AA9A4924A2A7BC94AD6CE4E8C
:100840004D9BA64BA7D3E97444B491A5D3E99295E7
:10085000AC64252B59C94A56B292953BBD5D2AC757
:100860006DD3E974B9ED76BBDD6EB7DBB7E974BA69
:100870007853FFE73AD7B9CB39E79C73CE39E79C79
:1008800073974EA72BC96CD3E974CA2AA9A4924ABC
:100890002AA9E4D6A6D3E92A9D4EA7D3E9743A9DA6
:1008A0004EA794ABACE272AE92179773B9942ADD5F
:1008B000AE981C977395ADB89C4BBBD2BD4AA5DAD8
:1008C000214BB9EAAE4EB7AB732955BAEBD29D7640
:1008D0002EBA9ACBB9B42BDDCEE51502D36139BA65
:1008E000E8A28B2E1D7D3ABA74B4E97474E9746879
:1008F0004B47974E47176DB4D1A5D3D145177A0111
:1009000073636F726520726573657400080B000273
:100910000202000009040000010202000005240098
:10092000100105240101010424020605240600012A
:100930000705810310004009040100020A000000BD
:10094000070502024000000705830240000004037F
:10095000090412010002EF02014041233680000128
:100960000102030141726475696E6F204C4C4300B3
:1009700041726475696E6F204C656F6E6172646F51
:100980000000000000000000000000000000000067
:100990000000000000000000000000000000000057
:1009A0000000000000000000000000000000000047
:1009B0000000000000000000000000030003000031
:1009C0000003000000030300000002000002020216
:1009D0000000000000000000000000000002000015
:1009E0000002000000000000000000000000000005
:1009F00000000000000000000000000000000002F5
:100A000000000200000000000000000000000000E4
:100A100002030302030302030202000003020000B8
:100A200000000000000000000000020000000000C4
:100A300000000000000000000000000002000000B4
:100A400000000101000200000000000000010100A0
:100A50000000000001000000000002000000000291
:100A6000000000000003020000000003030000007B
:100A70000000000000000000000000000000000076
:100A80000000000000000000000000000200000262
:100A90000000000000000200000000000002000052
:100AA0000200000200000000020002000000020339
:100AB000030203030203030203020303020302030C
:100AC0000100000000000000000000000000000025
:100AD0000000000000000000000000000000000016
:100AE00002000000000002020200000000000200FC
:100AF00000020000000000000200000000000002F0
:100B000003030303030303030303030303030300B8
:100B100000000000000000000000000000000000D5
:100B200000000000000000000000000000020000C3
:100B300002000300000302000000000000000200A9
:100B4000000000000200020002020000000000009D
:100B50000204040404040404040404040404040358
:100B6000000000020200000000000000020200007D
:100B70000000000000000000000000000101000073
:100B8000000000000002000000000000000202005F
:100B9000000000000000000200020002000002024B
:100BA0000200000303030302020203030302030221
:100BB0000000000000000000000000000000000233
:100BC000020000020200000000000000000000021D
:100BD0000200000000000000000000000000000211
:100BE0000200000000000000000000000000000201
:100BF00002030303030303030303030303030000CC
:100C000000000000000000000000000000000000E4
:100C100000000000000000000000000000000302CF
:100C200000030400000002000000000002020000B7
:100C300002000200000202020000000000020003A5
:100C4000030303030303030303030303030000007D
:100C5000001010126D6D33332D2D73732D2D333322
:100C60006D6D120000000000000000000000000098
:100C7000000000FE03050911214181814121110974
:100C80000503FE7FC0A09088848281818284889041
:100C9000A0C07F00000000000000008000000000F5
:100CA0000000000000004893FC02FBFA02FD49909E
:100CB0000000000000000000000080000080000034
:100CC0000000000000009224FC03FAFA03FC244810
:100CD0000000000000000000008000008000000014
:100CE0000000000000002448FD02FAFB02FC9224F0
:100CF00000000000E61311241FBECFEFDAE0DEBFD4
:100D0000CDBF11E0A0E0B1E0EAE5F4E302C0059058
:100D10000D92A437B107D9F728E0A4E7B1E001C0EC
:100D20001D92AB32B207E1F716E0CBE7D6E004C084
:100D30002197FE010E94251ACA37D107C9F70E94E0
:100D400033140C942B1A0C940000EDE9F1E0A0E0B0
:100D5000B8E000800EBC8111012C1197A0FDFDCFE1
:100D60000192B9F70DB40895AF92BF92CF92DF927E
:100D7000EF92FF920F931F93CF93DF93FC0190911B
:100D80005B06D0915A0640915806509159066091E1
:100D9000560670915706A081B18122813381C481AA
:100DA00085816A177B070CF468C0FD01EC0FF11D0B
:100DB0006E177F070CF061C0421753070CF45DC03B
:100DC000F901E80FF11D4E175F070CF056C0E1E086
:100DD0006B01CD0ED11CCA16DB0684F08D010C0F01
:100DE000111DC016D10654F4421753073CF0890177
:100DF000080F111D401751070CF4E260092F10E095
:100E00007A01E00EF11E6A177B0784F05D01AC0EDB
:100E1000B11C6A157B0554F4E216F3063CF0590147
:100E2000A80EB11CEA14FB040CF4E460CA16DB063D
:100E300084F05D01AC0EB11CCA14DB0454F4E2165C
:100E4000F3063CF06901C80ED11CEC14FD040CF44F
:100E5000E860E150EC3080F5F0E0EF5CF84F0C9486
:100E6000251A3F0767073F07460756075C075C07D9
:100E700076075C0770075C074607E0E0A9CF280FFC
:100E8000311D309359062093580616C080915F0695
:100E9000811109C081E080935F0610925E06109276
:100EA0005D0610925C06201B310BEBCFAC0FB11D21
:100EB000B0935706A0935606DF91CF911F910F91E3
:100EC000FF90EF90DF90CF90BF90AF900895841B7C
:100ED000280F8BEA989F912D11249695921760F711
:100EE00081E08093600610925D06E6CF490F421BB9
:100EF0008BEA989F912D112496959417E8F66D0F23
:100F00006A1BD6956D1760F3CECFCF93DF9300D0D9
:100F100000D000D0CDB7DEB7FC0186818230A1F1D0
:100F200058F48130A9F126960FB6F894DEBF0FBEB3
:100F3000CDBFDF91CF9108958330C9F1853099F706
:100F400080915B0690E02091580630915906280F59
:100F5000391F42815381241735072CF320915F06F6
:100F6000211109C021E020935F0610925E061092C5
:100F70005D0610925C0622813381281B390B309369
:100F8000590620935806CFCFCF010E94B406CBCF8D
:100F9000848122813381408151815A8349833C83FA
:100FA0002B838D8387E08E83CE010196EECF8581E2
:100FB000248142815381608171816C5F7F4FA09158
:100FC0005606B0915706E0915A06EA0FFB2FF11D25
:100FD0006E177F070CF0A7CF2850260F372F311D33
:100FE000A217B3070CF09FCF9A01285F3F4F609183
:100FF00058067091590640915B06460F572F511DB8
:10100000241735070CF08FCF8850820F932F911D36
:10101000681779070CF087CF81E080936006109203
:101020005D0681CF80E0EDE9F1E081118FEF0024D2
:1010300081938193819381930394D1F70895FC0167
:1010400080919C01882311F13FB7F89482E080934E
:10105000E9002091F200822F90E01816190614F48E
:1010600081E090E0882339F0289844E640939B0182
:101070004091F1004083222339F02091F2002111A8
:1010800003C02BE62093E8003FBF08958FEF9FEF4A
:1010900008952FB7F89483E08093E9009091E800D9
:1010A000892F807295FF04C09091F20080E4891B23
:1010B0002FBF08958091930181110DC082E080932C
:1010C0008F0184E08093900110929201109291011F
:1010D00081E0809393018FE891E00895CF93DF93AF
:1010E0001F92CDB7DEB76983DC01ED91FC910280E0
:1010F000F381E02D41E050E0BE016F5F7F4F099525
:101100000F90DF91CF91089583E08093E900809163
:10111000F200882319F08AE38093E80008950E9482
:10112000490890E00895CF93DF931F92CDB7DEB7C3
:10113000FC018485958597FD08C02FEF3FEF35872B
:1011400024870F90DF91CF910895CE0101960E94E0
:101150001F08019719F4898190E0F3CF8FEF9FEF7B
:10116000F0CF0F931F93CF93DF931F92CDB7DEB7CE
:101170008C01FC018485958597FF0BC0CE010196FB
:101180000E941F08019771F4898190E0F80195870A
:101190008487F801848595850F90DF91CF911F9109
:1011A0000F9108958FEF9FEFF1CFFC018485958516
:1011B00097FD0BC09FB7F89482E08093E90080917F
:1011C000F2009FBF90E0019608959FB7F89482E0E7
:1011D0008093E9008091F2009FBF90E008954091D4
:1011E000890150918A01209187013091880142172D
:1011F0005307B4F49091E8009570E1F39091E80002
:1012000092FD19C08093F1008091890190918A012B
:1012100001968F739927892B19F48EEF8093E8003C
:101220008091890190918A01019690938A0180931F
:10123000890181E0089580E00895DF92EF92FF92A6
:101240000F931F93CF93DF93D82E8A01EB017B017D
:10125000E40EF51ECE15DF0559F0D7FE12C0FE01D3
:1012600084910E94EF0821968111F4CF0FEF1FEFB8
:10127000C801DF91CF911F910F91FF90EF90DF9008
:1012800008958881EECF0F931F93CF93DF931F9222
:10129000CDB7DEB782E0898342E450E06CE079E0CC
:1012A00080E80E941D090E945A08DC0112960D91E7
:1012B0001C910115110589F0D801ED91FC91028076
:1012C000F381E02DBE016F5F7F4FC801099597FD47
:1012D00004C0F80100851185ECCF89810F90DF9162
:1012E000CF911F910F910895615030F02091F1003E
:1012F000FC0120830196F8CF289884E680939B0117
:1013000008953FB7F8948091830190918401A09152
:101310008501B091860126B5A89B05C02F3F19F025
:101320000196A11DB11D3FBFBA2FA92F982F882765
:10133000BC01CD01620F711D811D911D42E0660F40
:10134000771F881F991F4A95D1F708958F929F9212
:10135000AF92BF92CF92DF92EF92FF926B017C012E
:101360000E9481094B015C01C114D104E104F10424
:10137000B9F00E948109681979098A099B09683EB8
:1013800073408105910580F321E0C21AD108E1087C
:10139000F10888EE880E83E0981EA11CB11CE4CFF2
:1013A000FF90EF90DF90CF90BF90AF909F908F9085
:1013B00008958F929F92AF92BF92CF92DF92EF9259
:1013C000FF920F931F93CF93DF936C017B018A01F0
:1013D00080910C01882309F45CC080919C018823D2
:1013E00009F457C080918E0180FF05C08091E00014
:1013F00082608093E000E801B12C8AEFA82E93E090
:10140000892E2AE3922E209711F4BB20D9F10E9455
:10141000490881110AC0AA94AA20D9F161E070E0BC
:1014200080E090E00E94A609EECF8C171D0611F017
:101430000CF08C2F9FB7F8948092E9002091E8007F
:1014400025FD02C09FBFDFCF282F30E0C21BD30B8A
:10145000F701815020F041914093F100FACFE20E64
:10146000F31EBB2021F09092E800B12CEBCF8091CD
:10147000E80085FDE7CF9092E800BB24B394209765
:1014800009F3F3CF5D9884E680938D011016110661
:101490003CF081E090E0F6019383828310E000E06D
:1014A000C801DF91CF911F910F91FF90EF90DF90D6
:1014B000CF90BF90AF909F908F900895AF92BF92C2
:1014C000CF92DF92EF92FF920F931F93CF93DF9310
:1014D0006C017B018B01040F151FEB015E01AE183F
:1014E000BF08C017D10759F06991D601ED91FC9161
:1014F0000190F081E02DC6010995892B79F7C5018E
:10150000DF91CF911F910F91FF90EF90DF90CF90DF
:10151000BF90AF9008958F929F92AF92BF92CF925B
:10152000DF92EF92FF920F931F93CF93DF93EC0123
:10153000FA01C490319694914E5F5F4FAC2DB0E0AC
:101540002223E1F001E010E0892F877011F410E010
:1015500000E0E92FE695E695E695E00FF12FF11D05
:10156000EA9F8001EB9F100DFA9F100D1124209F20
:10157000F001219FF00D11244E0F5F1F8D010C0F04
:101580001D1F101611060CF098C0C038D1050CF0C4
:1015900094C09B01290F311D121613060CF08DC04B
:1015A000603471050CF089C04115510509F485C0FE
:1015B000F62FF770EF2E9B0177FF02C0295F3F4F98
:1015C000E3E035952795EA95E1F7F22F77FF04C020
:1015D000EE2011F0FFEFF20F222733272C1B3D0BDB
:1015E000D7FD02C030E020E0FC2C003811051CF0D3
:1015F00080E8F82EFC1AF21A6F2F0F2E000C770BD2
:10160000162F1095FF3F0CF010E0E1E0892F877056
:1016100009F4E0E09695969596959E0F690F711DD9
:101620006930710514F098E09F1BD12EDF0E6D2DEF
:1016300070E8670350011124B5016C0F7D1F620F24
:10164000731FC19E200D311D1124420F531F2E2DDB
:101650000E2C000C330B9F0F9D1579F1EB01C35637
:10166000DE4F10E000E00F1510F5FA01E00FF11F5A
:10167000E491F0E04F01022E02C0880C991C0A94FC
:10168000E2F7D7FC03C0888188298883EE2059F0CF
:1016900086E08D1544F05E01E0E8AE0EB11CF50168
:1016A0008081892980830F5F1F4F2196DCCFD394DF
:1016B0004A0F5B1F60587F4FCFCFDF91CF911F91B3
:1016C0000F91FF90EF90DF90CF90BF90AF909F90E1
:1016D0008F900895EF92FF920F931F93CF93DF9314
:1016E0008C01FC01C281D3818681833009F43FC023
:1016F000853009F05FC0C034D10508F07DC020817D
:1017000031818481820F932F911D181619060CF0D8
:1017100073C0203831050CF06FC037FF02C030E0D5
:1017200020E08138910514F080E890E0821BAE0142
:101730004770552791E001C0990F4A95EAF743E0B9
:10174000D595C7954A95E1F7D695DC2FCC27D79547
:10175000C795C20FD31FC356DE4F815008F44CC04B
:101760002991FE013197292B2083F7CF6096F8014C
:10177000858122813381820F932F911DC817D9074C
:10178000DCF5E080F180F801848120813181820FD5
:10179000932F911DE816F9064CF727812E5F41E53E
:1017A0005CE0BE01C7010E948B0AF0E1EF0EF11C64
:1017B000EACF6096F801858122813381820F932FD1
:1017C000911DC817D907C4F4E080F180F801848125
:1017D00020813181820F932F911DE816F9064CF775
:1017E0002681215041E55CE0BE01C7010E948B0AC1
:1017F000F0E1EF0EF11CEACFDF91CF911F910F9135
:10180000FF90EF9008952D9A0895BC0190E080E03C
:101810000C94A6098FB18095807F669B88601C9B85
:101820008460089520E191E061FD94E060FD990FEE
:1018300062FD9295687F269FD0011124A80FA356C0
:10184000BE4F8C9140FF03C0892B8C9308959095D7
:101850008923FBCF8F929F92AF92BF92CF92DF925C
:10186000EF92FF920F931F93CF93DF936D3089F028
:10187000C0907C01D0907D016A30D1F410927B0140
:1018800010927A0188E0C80ED11CD0927D01C092DE
:101890007C0181E090E0DF91CF911F910F91FF904B
:1018A000EF90DF90CF90BF90AF909F908F90089572
:1018B00000917A0110917B01E5E06E9FE001112417
:1018C000C455DF4F5801F12CF5E0E12CFF1629F04B
:1018D000CE010196FE01E490EC01912C812CF0E800
:1018E000AF16B10458F4B601680D791D6034710566
:1018F00028F44E2D4170C5010E94120CE6948FEF22
:10190000881A980AE8E08E16910449F7F394FFEFDD
:10191000AF1ABF0A86E0F812D7CF0A5F1F4F1093A5
:101920007B0100937A01B5CF80E00C94A5061F934C
:10193000CF93DF93DC0130E020E050E040E011E0A5
:10194000C1E0D0E02617370791F114968C911497D7
:10195000811115C014961C93149712968D919C9129
:101960001397ED91FC911197E80FF91FE4911596EB
:10197000EC931597019613969C938E931297149659
:101980009C91149715968C911597892349F0FE0127
:10199000022E02C0EE0FFF1F0A94E2F74E2B5F2BC0
:1019A000990F14969C9314972F5F3F4FCBCFCA018A
:1019B000DF91CF911F9108952F923F924F925F92A6
:1019C0006F927F928F929F92AF92BF92CF92DF924F
:1019D000EF92FF920F931F93CF93DF93CDB7DEB7B4
:1019E0002D970FB6F894DEBF0FBECDBF5C018B0103
:1019F0005A8349831C821B821D821E8268E070E02C
:101A0000CE0101960E94970C01961C0168E070E0DF
:101A1000CE0101960E94970C7C0161E070E0CE013E
:101A200001960E94970C91012A0D3B1D1216130678
:101A30000CF0B3C097012F5F3F4FA901400F511F1A
:101A4000141615060CF0A9C0380147E0642277246B
:101A5000A80173E0559547957A95E1F7598748872E
:101A6000890137FF02C0095F1F4F63E01595079595
:101A70006A95E1F727703327232B11F00F5F1F4F73
:101A8000482E51E05F83512CF12CE12CD12CC12C3C
:101A900088E090E09C01261937093D872C87C01605
:101AA000D1060CF07AC088248394912C61E070E018
:101AB000CE0101960E94970C892B21F432E0830E0F
:101AC000911CF4CFB401CE0101960E94970C0196AF
:101AD0009B878A8790E080E04A855B85841795071D
:101AE00008F058C0442011F05F81552AAF81AA0F39
:101AF00009F04AC0288539852C0D3D1DA9014F5F8D
:101B00005F4F4930510580F5A5014E0D5F1D4038EE
:101B1000510550F5B9017695762F6627779567952B
:101B20006A0D7B1D6E0D7F1D852C912CFB01E356EC
:101B3000FE4FA401062C01C0440F0A94EAF750811D
:101B4000452B40836114710479F02730310561F031
:101B5000FB01E35EFD4F0C8402C0959487940A94C8
:101B6000E2F75080852880822FEFE21AF20AE21411
:101B7000F3046CF03FEFC31AD30A41E04F83F12C1A
:101B8000E12C01965A2EA8CFAF83A52DFACF51E0B4
:101B90005F83F7CF81E0482682CF2D960FB6F89469
:101BA000DEBF0FBECDBFDF91CF911F910F91FF9090
:101BB000EF90DF90CF90BF90AF909F908F907F90ED
:101BC0006F905F904F903F902F900895089590E010
:101BD00080E008952F923F924F925F926F927F9292
:101BE0008F929F92AF92BF92CF92DF92EF92FF922D
:101BF0000F931F93CF93DF93CDB7DEB7C45BD109AB
:101C00000FB6F894DEBF0FBECDBF182FCE018B5498
:101C10009F4FFE01319622E01782118210821382BB
:101C2000128214821582268310863996E817F907E6
:101C300099F7B12C43E0C42ED12CE12CF12C09E012
:101C400050E1A52E60E4662E712C55245394B116F4
:101C500054F580906B064FEF60E08416A1F00E946F
:101C60002C19082C000C9908A70196010E949A19BA
:101C7000C401880F991F880D991D885D9E4F860F9E
:101C8000911DFC01608180916E06082E000C990B5D
:101C9000E62FF0E0EE0FFF1FED5BFE4F20812817CF
:101CA0001906E9F0E4F0812F8B19CC54DF4F0FB601
:101CB000F894DEBF0FBECDBFDF91CF911F910F9182
:101CC000FF90EF90DF90CF90BF90AF909F908F905C
:101CD0007F906F905F904F903F902F900895F0E528
:101CE0006F0290011124E62FEE0FFF0BED5BFE4F0C
:101CF00081812354364F81118AC0A0E1B0E0912C3C
:101D000090E080E0412C70E050E0F901E80FF91F0D
:101D10008490581160C07F5F0196582D84319105E1
:101D2000A1F78820B9F0E1E0F0E0EC0FFD1F909EF4
:101D3000E00DF11D11248682842D90E18902A0011D
:101D4000112451834083B383A2837295707F74837F
:101D5000A5829394509624513109A035B10581F69E
:101D6000CE01019670E020916C0630916D069716B9
:101D700009F4A2C0FC0142815381F301E41BF50B7D
:101D8000AF01FC015383428340815181240F351FF1
:101D900031832083E3E8F6E050E040E02081211128
:101DA00083C0049F9001059F300D1124D901A558CF
:101DB000B94FFC01402F01900D924A95E1F72D5744
:101DC000394FF901508220916E06215020936E0602
:101DD0007F5F0996C8CF5523B9F0E1E0F0E0EC0F42
:101DE000FD1F909EE00DF11D11245683442D50E1FE
:101DF00045021001112431822082B383A28372959F
:101E0000707F7483A5829394482E71E085CF90E013
:101E100080E0912CF90150E040E071E0412C849089
:101E2000841024C07F5F7497405F5F4F482C40341C
:101E30005105A9F7882091F0E1E0F0E0EC0FFD1FDB
:101E4000909EE00DF11D112486829183808353833F
:101E50004283A4827295707F7583939440962F5F1E
:101E60003F4F8034E1E09E07A9F67ACF4420D1F0BD
:101E7000A1E0B0E0AC0FBD1F909EA00DB11D1124DC
:101E800016964C92169711969C938E9313965C938C
:101E90004E9312971496AC9214977295707F159684
:101EA0007C93939471E0BFCF4F5F5F4F399640337F
:101EB000510509F073CF8CCF205C3E4F30936D06F7
:101EC00020936C0660936B06B394C1CE0C94841976
:101ED0008F929F92AF92BF920F931F93CF93DF93F6
:101EE000CDB7DEB7A1970FB6F894DEBF0FBECDBF5A
:101EF00019A2423008F44AE08E010F5D1F4F842E74
:101F0000912CB12CA12CA50194010E94CC19E62F93
:101F1000B901CA01EA3044F5E05DD801EE938D01C4
:101F2000232B242B252B79F790E080E0109769F084
:101F3000FD0101900020E9F73197AF014A1B5B0BCF
:101F4000BD018DEE95E00E945E0AA1960FB6F89451
:101F5000DEBF0FBECDBFDF91CF911F910F91BF901C
:101F6000AF909F908F900895E95CD7CFFF920F9329
:101F70001F93CF93DF93EC01F62E08811981C801DE
:101F80000E948419F81621F06F2DC8010E948C1947
:101F9000CE01DF91CF911F910F91FF900895CF93C4
:101FA000DF9300D0CDB7DEB780E190E09A838983DC
:101FB00067E4CE0101960E94B60F81E190E09A831A
:101FC000898365E4CE0101960E94B60F82E190E01C
:101FD0009A8389836DE4CE0101960E94B60F83E156
:101FE00090E09A83898360917106CE0101960E94E8
:101FF000B60F84E190E09A83898360917206CE01E6
:1020000001960E94B60F0F900F90DF91CF91089527
:102010008F929F92AF92BF92CF92DF92EF92FF92F8
:10202000CF93DF9380E190E00E94660FD82F81E18B
:1020300090E00E94660FC82F82E190E00E94660F38
:10204000D73409F097C0C53409F094C08D3409F035
:1020500091C083E190E00E9484198093710684E12D
:1020600090E00E9484198093720680E190E0909342
:1020700057068093560683E390E090935906809329
:1020800058068CE080935A0680935B0610925C069B
:1020900010925D0610925E0681E080935F061092BA
:1020A00060061092700610926F0681E090E09093A7
:1020B0006306809362068FE390E0909365068093B9
:1020C000640680E8809366061092670685E0809338
:1020D00068061092690610926A06C2EFD5E080E8A1
:1020E000882E912CA12CB12C90E4C92ED12CE12C5E
:1020F000F12C0E942C19A50194010E949A19798350
:1021000068830E942C19A70196010E949A197B836B
:102110006A83249686E0C635D80759F7EBE7F6E0E0
:102120001086399688E0EB32F807D1F780E3809388
:102130006E0680E890E090936D0680936C068FEFBA
:1021400080936B0682E00E94EA0D809373061092E2
:102150007806109275061092740610927906DF9137
:10216000CF91FF90EF90DF90CF90BF90AF909F9076
:102170008F9008958091710690917206892B09F4D1
:1021800074CF10927206109271060E94CF0F6DCF1D
:102190001F920F920FB60F9211248F939F938091ED
:1021A000E1009091E100937F9093E10083FF0FC0E5
:1021B0001092E90091E09093EB001092EC0092E312
:1021C0009093ED0010929C0198E09093F00082FFB4
:1021D00022C093E09093E9009091F200992319F0C6
:1021E0009AE39093E80090918D01992341F09091AA
:1021F0008D01915090938D01911101C05D9A909144
:102200009B01992341F090919B01915090939B01E8
:10221000911101C0289A84FF18C08091E2008E7E3F
:1022200081608093E2008091E1008F7E8093E100E5
:1022300080918E018E7E806180938E019F918F911F
:102240000F900FBE0F901F90189580FFF7CF8091D1
:10225000E2008E7E80618093E2008091E1008E7EBC
:102260008093E10080918E018E7E8160E5CF1F9288
:102270000F920FB60F921124CF92DF92EF92FF923E
:102280000F931F932F933F934F935F936F937F937E
:102290008F939F93AF93BF93EF93FF93CF93DF936E
:1022A000CDB7DEB76C97DEBFCDBF1092E90080914D
:1022B000E80083FF25C068E0CE0145960E947409BE
:1022C00082EF8093E8008D8987FF39C09091E80004
:1022D00090FFFCCF982F907609F034C19E894F89EA
:1022E000588D2F89F88C911131C0803861F580911B
:1022F0008C018093F1001092F1008EEF8093E80042
:102300006C960FB6F894DEBF0FBECDBFDF91CF91B4
:10231000FF91EF91BF91AF919F918F917F916F91BD
:102320005F914F913F912F911F910F91FF90EF90EF
:10233000DF90CF900F900FBE0F901F9018959EEFDB
:102340009093E800C7CF1092F100D5CF913059F4A7
:102350008111D3CF4130510581F680918C018D7F61
:1023600080938C01CACF933049F48111C6CF41309C
:10237000510519F680918C018260F2CF953041F4BD
:102380008091E80080FFFCCF20682093E300B5CF68
:10239000963009F0A9C00B8D1C8D22E01092E90047
:1023A00010928A0110928901F2122EC010928801B7
:1023B000109287010E9443091F8299E09983FA8253
:1023C00091E09E8390EA98879AEF998720918901FE
:1023D00030918A01275F3F4F3C832B838D8310927E
:1023E000E90010928A0110928901109388010093EC
:1023F000870149E050E0BE016F5F7F4F80E00E949F
:102400001D090E94430979CF109388010093870129
:102410000E945A08DC0112960D911C9101151105BC
:1024200009F451C1D801ED91FC910480F581E02DB2
:10243000BE016B5E7F4FC8010995009709F03EC150
:10244000F80100851185EACFF3E0FF120EC08F89F5
:10245000882309F440C0823061F440E860E180E7FD
:1024600099E00E94B313811148CF81E28093EB0081
:1024700047CF813029F440E86BE084E699E0F1CF62
:10248000833099F70E945A08DC011296ED90FC9077
:102490008E010F5F1F4F6801E114F10479F0D7013D
:1024A000ED91FC910680F781E02DB801C7010995F7
:1024B000080F111DF701E084F184EECFD8011C92C2
:1024C000F60101900020E9F73197BF016C197D09F1
:1024D00040E0C601C6CF6EE479E0FB01449150E0D4
:1024E00080E80E941D0909CF973009F4BECF9830CB
:1024F00021F481E08093F10000CF993009F0FDCE06
:10250000837009F0B2CFE2E2F1E081E031E096E3DE
:102510002191222371F08093E9003093EB00DF01D9
:1025200011972C912093EC009093ED008F5F8730F2
:1025300079F78EE78093EA001092EA008F89809302
:102540009C01DBCE8B8D9C8D1092E90010928A014C
:10255000109289019093880180938701898D811160
:1025600092C08E899D89913A49F4813209F07DCFDC
:1025700047E050E065E071E080E0B3CF913209F0D0
:1025800074CF833269F48F89988DB0E0A0E0809396
:10259000010190930201A0930301B0930401ADCE19
:1025A000803269F48091E80082FFFCCF67E085E02B
:1025B00091E00E9474098BEF8093E8009ECE8232F6
:1025C00009F09BCE8F8980930C01EEEFFFE7859198
:1025D00094918B3F9C4D51F1E0E0F8E08091050132
:1025E00090910601A0910701B0910801803B9440B1
:1025F000A105B105F1F480910C0180FD1AC0EE3FF8
:102600008AE0F80789F587E797E7918380838091CF
:10261000600080938B0188E19BE00FB6F894A89549
:10262000809360000FBE9093600067CEEEEFFAE0FB
:10263000D5CF808191818737974709F05ECEA895E5
:102640008091600088618093600080918B0180930D
:102650006000EE3F2AE0F20789F08091FE0A909137
:10266000FF0A9183808349CE8081918187379807C3
:1026700051F29093FF0A8093FE0AC5CF1092FF0A91
:102680001092FE0A3ACE0E945A08DC0112960D9171
:102690001C910115110509F4E8CED801ED91FC91CA
:1026A0000190F081E02DBE016B5E7F4FC80109955E
:1026B000811123CEF80100851185EBCF181619067C
:1026C0000CF41BCED2CEF1E0FF12BECE62E579E073
:1026D00004CF1F920F920FB60F9211242F933F93A6
:1026E0008F939F93AF93BF9380917F0190918001CF
:1026F000A0918101B091820130917E0123E0230FEE
:102700002D3758F50196A11DB11D20937E018093B0
:102710007F0190938001A0938101B0938201809109
:10272000830190918401A0918501B0918601019669
:10273000A11DB11D8093830190938401A093850115
:10274000B0938601BF91AF919F918F913F912F914F
:102750000F900FBE0F901F90189526E8230F02963A
:10276000A11DB11DD2CFEF92FF920F931F93CF9374
:10277000DF93F82E192FE62E042F81E0860F880FA5
:102780000E94EF0883E00E94EF08CF2DD12FEC0EBE
:10279000FD2EF11CCE15DF05B9F007FF13C0FE01B9
:1027A00084910E94EF08182F80E00E94EF08812397
:1027B00021968111EFCFDF91CF911F910F91FF9063
:1027C000EF9008958881EDCF81E0F5CF1092A005BC
:1027D00010929F0588EE93E0A0E0B0E08093A10501
:1027E0009093A205A093A305B093A40589E591E079
:1027F00090939E0580939D058FEF9FEF9093AA0580
:102800008093A9051092F0051092EF058BE691E0F8
:102810009093EE058093ED05109269061092630681
:102820001092620610926506109264061092660677
:102830001092670682E08093680610926A06EBE7C2
:10284000F6E017821182108213821282148215829E
:1028500086831086399698E0EB32F90791F788E184
:102860008093F1050895CF93DF9300D01F92CDB7E9
:10287000DEB7789484B5826084BD84B5816084BD00
:1028800085B5826085BD85B5816085BD80916E000E
:10289000816080936E00109281008091810082603F
:1028A000809381008091810081608093810080917C
:1028B000800081608093800080919100826080938D
:1028C00091008091910081608093910080919000AF
:1028D0008160809390008091C10084608093C100EA
:1028E0008091C10082608093C1008091C1008160AD
:1028F0008093C1008091C30081608093C300809168
:10290000C00082608093C0008091C200816080938B
:10291000C20080917A00846080937A0080917A006E
:10292000826080937A0080917A00816080937A003F
:1029300080917A00806880937A0010929C011092B6
:102940008C0110928E018091D70081608093D70016
:1029500080EA8093D80089B5806189BD89B582609D
:1029600089BD09B400FEFDCF61E070E080E090E039
:102970000E94A6098091D8008F7C80618093D80046
:102980008091E000807F8093E0008091E1008E7E66
:102990008093E1008DE08093E200559A209A81ECCB
:1029A00080937C0085B1806F85B984B1877E84B9BE
:1029B00084B1876E84B95E9A5F988AB1806D8AB956
:1029C000769A6E9881B3806F81BB899880B38D7041
:1029D00080BB80E58CBD81E08DBD85E090E00E94EC
:1029E000050C5F9A85E090E00E94050C5E985C986B
:1029F000ECE5F6E089E696E024912EBD00000DB4EA
:102A000007FEFDCF31968E179F07B1F75C9A81E8DC
:102A100080936400809165008160809365000E94CE
:102A2000940C0E940A0C02E010E087FF15C05C982D
:102A300085EA8EBD00000DB407FEFDCF5C9A2E988E
:102A40002F982D988091640080628093640081E0CB
:102A500083BF889513BEFCCF0E940A0C82FF40C042
:102A60002D980E940A0C84788438C1F40E94030CCB
:102A700088EC90E00E94050C2F981A8309836FEF71
:102A8000CE0101960E94B60F84EF91E00E94050CE2
:102A90002F9A0E940A0C84788438D9F30E940A0C79
:102AA00084718431C1F40E94030C88EC90E00E9490
:102AB000050C2E981A83098360E0CE0101960E94CE
:102AC000B60F84EF91E00E94050C2E9A0E940A0C2A
:102AD00084718431D9F388EC90E00E94050CBCCF5E
:102AE0000E94030C82E090E00E94660F882309F4A4
:102AF00084C03E9A3F9A81E090E00E94660F082FC2
:102B00000470702E81FF11C001112E9801EF1FEF8C
:102B1000B8E0EB2EF12C88E5682E0E940A0C86FFA7
:102B20006FC02E9A2F9A0E94030C82E390E00E94BD
:102B3000050C0E940A0C8111F8CF6091F10570E03C
:102B400088EE93E00E94111A609300018091640066
:102B50008E7F8093640080917A00806480937A00F5
:102B600080917A0086FDFCCF009178001091790069
:102B70000E948109AB01BC01C801B0E0A0E0DC010A
:102B8000992788278C019D01040F151F261F371FC9
:102B9000C901B8012091640021602093640061158F
:102BA00071058105910511F00E947B190E940810A2
:102BB00010927A0690E4492E512C612C712C20E45D
:102BC000822E9924939436E0C32ED12C48E0A42E73
:102BD000B12CFF24F39480E0282E80E0382E8091E1
:102BE0007A06882309F4CFC0813009F41CC121146E
:102BF0003104A9F30E940000ECCF3E983F987BCFB0
:102C0000772029F00430110511F42E9A2F9881E0D5
:102C10000E94A506980117FF04C022273327201B16
:102C2000310B27703327C80117FD0796A3E0959550
:102C30008795AA95E1F717FF05C00197A701421BE9
:102C4000530B9A01BC017695762F66277795679589
:102C500063567E4FB0E0A0E02701421A530A8E3F30
:102C60005FEF950709F43FC06A9E50016B9EB00C60
:102C7000112450E040E0F501E455FA4F5F014B01AB
:102C8000F0E88F0E911C8F3F980791F0F501E40F4B
:102C9000F51FE4916B01C40ED51EF0E01F01022E5A
:102CA00001C0220C0A94EAF7F60134882328248A0A
:102CB0002115310599F0F501E40FF51FE491640148
:102CC000C40ED51EF0E01F01042C02C035942794D9
:102CD0000A94E2F7F60134882328248A4F5F5F4F75
:102CE0004835510581F6019660587F4F119709F0DC
:102CF00047C00E94940C8FE090E00E94050C0F5F8B
:102D00001F4F0931110509F008CF772011F02F9AD4
:102D10002D9880E991E00E94050C0E94030C81E04F
:102D200090E00E94660F80FF00CF8AE090E00E9452
:102D3000660F9FEF980F9E3F08F0F7CE22E330E03A
:102D400030937B0120937A0128E330E030937D01BA
:102D500020937C010BE010E0682F8DEE95E00E943F
:102D60002A0CC8010E94660F0F5F1F4F0131110529
:102D700099F70E94940C88EE93E00E94050CD5CE42
:102D8000A1E0B0E06CCF0E94120810927D01109279
:102D90007C0110927B0110927A01809179018093DD
:102DA00078010E940A0C809379010E940A0C8079B4
:102DB000803971F4809171069091720600E019E0FB
:102DC000892B09F110927206109271060E94CF0FA2
:102DD0008091780183FD04C08091790183FD20C03A
:102DE00046E058E06AE070E089E190E00E94DC0C87
:102DF0004DEC57E06DE270E083E290E00E94DC0C65
:102E00000E94940CF4CEF8016491662309F38DEED0
:102E100095E00E942A0C0F5F1F4F892BA1F7D8CF96
:102E2000F0927A06E4CE9FB7F89440917F015091DA
:102E3000800160918101709182019FBF9091760124
:102E4000992319F010927601D2CE90917701F42F48
:102E5000F91B9F2F20910001F21740F49F5F9217FA
:102E600008F0C5CE83BF889513BEC1CE809376018E
:102E70004093770180917401909175010196909330
:102E80007501809374018091730618160CF054C07C
:102E90000E94EA0D809373060091790100937801F6
:102EA0000E940A0C182F809379010E940A0C8C78DA
:102EB00061F080915F06882341F010925D061092C8
:102EC0005C06F0925E0610925F0604FD07C014FFD8
:102ED00005C0809179068F258093790680916006E0
:102EE0008823B9F1F09279068091740180FD31C098
:102EF00080915D068F5F80935D06853050F1609113
:102F0000F10570E080916F06909170060E94FD19A6
:102F100080917106909172068617970730F470932E
:102F20007206609371060E94CF0F8AEF90E00E94B4
:102F3000050C0E9408105BCE80917806882309F466
:102F4000ABCF81E00E94EA0D809373061092780661
:102F5000A3CF0E94120810927D0110927C01109262
:102F60007B0110927A01609171067091720690E077
:102F700080E04AE00E94680F10927B0110927A0173
:102F8000B0927D01A0927C016091F10570E080918A
:102F90006F06909170060E94FD1990E080E04AE073
:102FA0000E94680F80917906811156C08091580661
:102FB0009091590620915E06222309F4F0C0E09119
:102FC0005C06E13108F0EBC021E02E0F20935C0697
:102FD000F0E0EF5EFE4F2081820F911D27FD9A9554
:102FE000909359068093580680915D0690E0019673
:102FF000B6010E94111A80935D06809160068111CE
:1030000027C080916F06909170060396909370068A
:1030100080936F06B4010E94FD1970937706609348
:10302000760680917406909175066817790761F0AD
:10303000F092780680916C0690916D0680549140D4
:1030400090936D0680936C0670937506609374067A
:1030500082E696E00E948507009179060B830DEECB
:1030600015E0E12CF8018581968197FF0DC020E8DD
:1030700030E0368325830E942C19A30192010E941F
:103080009A19F80170876783F801858196818038E5
:10309000910540F4678170856034710518F441E052
:1030A0000E94120CFB81F11108C0F8018581968104
:1030B000E0FC7FC0019796838583E3940C5F1F4FEC
:1030C000F9E1EF12CFCFE09079060BE716E0F801B7
:1030D0008085882309F442C0E11018C080917401F2
:1030E00090917501208131812350310931832083F2
:1030F0006CE070E00E94FD19892B41F4878190E01B
:10310000019663E070E00E94111A8783F8018481C0
:1031100020813181820F932F911D2091560630918D
:103120005706821793073CF080917906811103C0FE
:10313000C8010E948507C8010E946A0BF8018481BA
:1031400020813181820F932F911D1816190634F0BA
:10315000108680916E068F5F80936E06075F1F4F0B
:10316000F8E00B321F0709F0B2CF82E696E00E942A
:103170006A0B209160066091580670915906809103
:10318000560690915706625071092223A1F02091B2
:103190005D064BE257E002970E948B0A31CE1092F7
:1031A0005F060596909359068093580610925D0627
:1031B00024CF029780CF20915D0649E656E0EBCF01
:1031C0008F929F92AF92BF92CF92DF92EF92FF9237
:1031D000CF93DF93EC01688179818A819B816115AE
:1031E00071058105910521F464E279ED8BE597E0A5
:1031F0002DE133EF41E050E00E949A1949015A0154
:103200009B01AC01A7EAB1E40E94B9196B017C01F2
:10321000ACEEB4EFA50194010E94C719C60ED71EEB
:10322000E81EF91EF7FE06C081E0C81AD108E108C1
:1032300080E8F80AC882D982EA82FB82C701B60117
:103240009F77DF91CF91FF90EF90DF90CF90BF906D
:10325000AF909F908F9008958F929F92AF92BF9260
:10326000CF92DF92EF92FF9260910D0170910E016B
:1032700080910F01909110016115710581059105F3
:1032800021F464E279ED8BE597E02DE133EF41E045
:1032900050E00E949A1949015A019B01AC01A7EA2A
:1032A000B1E40E94B9196B017C01ACEEB4EFA50149
:1032B00094010E94C719C60ED71EE81EF91EF7FE1C
:1032C00006C081E0C81AD108E10880E8F80AC09277
:1032D0000D01D0920E01E0920F01F0921001C70192
:1032E000B6019F77FF90EF90DF90CF90BF90AF90A7
:1032F0009F908F90089560930D0170930E018093BD
:103300000F01909310010895F999FECF92BD81BDF0
:10331000F89A992780B50895262FF999FECF1FBAFC
:1033200092BD81BD20BD0FB6F894FA9AF99A0FBEEE
:1033300001960895052E97FB1EF400940E94B11982
:1033400057FD07D00E94CC1907FC03D04EF40C9413
:10335000B11950954095309521953F4F4F4F5F4F94
:10336000089590958095709561957F4F8F4F9F4FF1
:1033700008950E94EE19A59F900DB49F900DA49FF3
:10338000800D911D11240895B7FF0C94B9190E9466
:10339000B919821B930B0895A1E21A2EAA1BBB1B1D
:1033A000FD010DC0AA1FBB1FEE1FFF1FA217B30711
:1033B000E407F50720F0A21BB30BE40BF50B661F27
:1033C000771F881F991F1A9469F7609570958095EB
:1033D00090959B01AC01BD01CF010895A29FB00162
:1033E000B39FC001A39F700D811D1124911DB29F39
:1033F000700D811D1124911D0895AA1BBB1B51E165
:1034000007C0AA1FBB1FA617B70710F0A61BB70B54
:10341000881F991F5A95A9F780959095BC01CD01F9
:10342000089597FB072E16F4009407D077FD09D076
:103430000E94FD1907FC05D03EF4909581959F4FA1
:103440000895709561957F4F0895EE0FFF1F0590C9
:0A345000F491E02D0994F894FFCFE9
:10345A0010FFFFFFFF00E100000000000001000074
:10346A0000FAFBFCFDFDFEFEFF0102020303040558
:10347A000600C18081000000010101020307010367
:10348A0004020405010506060102000207080604F3
:10349A0008060306000D000B00130107000B000FBE
:1034AA000006000A00000000006E08D9098F08848F
:1034BA0008D5089308B108000000002A0C5E0AE744
:0434CA000DE60D00FE
:00000001FF
