:100000000C9436040C945E040C945E040C945E0410
:100010000C945E040C945E040C945E040C945E04D8
:100020000C945E040C945E040C94020D0C94710DFF
:100030000C945E040C945E040C945E040C945E04B8
:100040000C945E040C945E040C945E040C945E04A8
:100050000C945E040C945E040C945E040C94A30F48
:100060000C945E040C945E040C945E040C945E0488
:100070000C945E040C945E040C945E040C945E0478
:100080000C945E040C945E040C945E040C945E0468
:100090000C945E040C945E040C945E040C945E0458
:1000A0000C945E040C945E040C945E04000000004A
:1000B000003E5B4F5B3E3E6B4F6B3E1C3E7C3E1CEE
:1000C000183C7E3C181C577D571C1C5E7F5E1C0034
:1000D000183C1800FFE7C3E7FF0018241800FFE7EB
:1000E000DBE7FF30483A060E2629792926407F05AE
:1000F0000507407F05253F5A3CE73C5A7F3E1C1CC4
:1001000008081C1C3E7F14227F22145F5F005F5F83
:1001100006097F017F006689956A6060606060946F
:10012000A2FFA29408047E040810207E2010080874
:100130002A1C08081C2A08081E101010100C1E0C7F
:100140001E0C30383E3830060E3E0E060000000011
:100150000000005F00000007000700147F147F14F8
:10016000242A7F2A1223130864623649562050003D
:1001700008070300001C2241000041221C002A1C29
:100180007F1C2A08083E0808008070300008080814
:100190000808000060600020100804023E51494534
:1001A0003E00427F400072494949462141494D3352
:1001B0001814127F1027454545393C4A49493141B9
:1001C000211109073649494936464949291E000087
:1001D00014000000403400000008142241141414DC
:1001E0001414004122140802015909063E415D59C8
:1001F0004E7C1211127C7F494949363E41414122D1
:100200007F4141413E7F494949417F090909013EFA
:10021000414151737F0808087F00417F4100204021
:10022000413F017F081422417F404040407F021C33
:10023000027F7F0408107F3E4141413E7F0909094A
:10024000063E4151215E7F09192946264949493216
:1002500003017F01033F4040403F1F2040201F3FDC
:100260004038403F63140814630304780403615961
:10027000494D43007F4141410204081020004141A3
:10028000417F04020102044040404040000307084F
:100290000020545478407F2844443838444444284B
:1002A000384444287F385454541800087E090218F2
:1002B000A4A49C787F0804047800447D400020407A
:1002C000403D007F1028440000417F40007C0478BE
:1002D00004787C080404783844444438FC18242406
:1002E0001818242418FC7C08040408485454542486
:1002F00004043F44243C4040207C1C2040201C3C03
:100300004030403C44281028444C9090907C4464F9
:10031000544C44000836410000007700000041368C
:10032000080002010204023C2623263C1EA1A16112
:10033000123A4040207A3854545559215555794144
:100340002154547841215554784020545579400C1B
:100350001E527212395555555939545454593955FC
:100360005454580000457C410002457D420001453F
:100370007C40F0292429F0F0282528F07C545545AC
:10038000002054547C547C0A097F4932494949323F
:100390003248484832324A4848303A4141217A3A54
:1003A00042402078009DA0A07D39444444393D401E
:1003B00040403D3C24FF2424487E4943662B2FFCCB
:1003C0002F2BFF0929F620C0887E09032054547979
:1003D000410000447D413048484A32384040227A4A
:1003E000007A0A0A727D0D19317D2629292F2826C7
:1003F0002929292630484D402038080808080808CF
:100400000808382F10C8ACBA2F102834FA00007B27
:10041000000008142A142222142A1408950022002D
:1004200095AA005500AAAA55AA55AA000000FF00E7
:10043000101010FF00141414FF001010FF00FF1024
:1004400010F010F0141414FC001414F700FF000056
:10045000FF00FF1414F404FC141417101F10101FD5
:10046000101F1414141F00101010F0000000001FC3
:10047000101010101F10101010F010000000FF10CE
:100480001010101010101010FF10000000FF1400CA
:1004900000FF00FF00001F10170000FC04F41414FC
:1004A0001710171414F404F40000FF00F7141414C8
:1004B00014141414F700F7141414171410101F1048
:1004C0001F141414F4141010F010F000001F101F6B
:1004D0000000001F14000000FC140000F010F010D9
:1004E00010FF10FF141414FF141010101F00000050
:1004F00000F010FFFFFFFFFFF0F0F0F0F0FFFFFF54
:100500000000000000FFFF0F0F0F0F0F38444438AA
:10051000447C2A2A3E147E02020606027E027E02E5
:1005200063554941633844443C04407E201E200604
:10053000027E020299A5E7A5991C2A492A1C4C7241
:1005400001724C304A4D4D303048784830BC625AC8
:10055000463D3E494949007E0101017E2A2A2A2A58
:100560002A44445F444440514A444040444A514034
:100570000000FF0103E080FF000008086B6B0836F5
:1005800012362436060F090F060000181800000066
:100590001010003040FF0101001F01011E00191D55
:1005A0001712003C3C3C3C0000000000F0F89C8E20
:1005B0008783878E9CF8F00000FEFF03030303038C
:1005C000070EFCF80000FEFF0303030303070EFC05
:1005D000F80000FFFF00000000000000FFFF000027
:1005E000FEFF8383838383C7EE7C380000F8FC0E14
:1005F00007030303070EFCF800003F7FE0C0808084
:10060000C0E07F3FFFFF01010101010101FFFF0089
:1006100000FFFF0C0C0C0C1C3E77E3C100007FFFB9
:10062000C0C0C0C0C0E0703F1F00001F3F70E0C0EE
:10063000C0C0E0703F1F00007FFFC1C1C1C1C1E366
:10064000773E1C00001F3F70E0C0C0C0E0703F1F3D
:10065000000000000001FFFF01000000D5F08D1434
:10066000A1C881CFD9F1AF20003F073065EF9CE3EF
:10067000922A3AA9AA525551A95255A95254AA549C
:1006800055AA148AE49DEB5C2725755AAAF8944B69
:10069000E514B7BD738E4BEA745C4E55D651A992E2
:1006A000959208027F1FA0A9743A9D4EA7D3E974C2
:1006B000E0D43AA9A472CE39A9A4721D3FA14E1369
:1006C000EA349FEFE4ABDE1D9D54526DF74A2A4A8F
:1006D000A9A4FAD4A73E4AA9A4FAD4A73EF5514A40
:1006E0002529A5929452494AA9A4FAD4A73EF551C6
:1006F0004A25D5A73EF5A98F522AA9B65BA924A5FC
:1007000054527DEA539FFAA8A5924AC9ED36FE4E8F
:100710002AA99C734E2AA95C87F7CE29A9A473CE77
:1007200029A9648723A924A55492522A492995A46A
:10073000944A524A2529A592AA57BDEA297BD5ABEE
:100740005EF54A2A492995B4DB9554D26E57524931
:100750004AA9A4EA55AF7AD5534A2555AF7AD5AB05
:100760009E52A7DF2E9554A45249D5AB5EF5AA67D9
:100770005D4925ED28EB9C924A3AE79C924A76E047
:100780000E01080B00020202000009040000010231
:1007900002000005240010010524010101042402C7
:1007A0000605240600010705810310004009040125
:1007B00000020A000000070502024000000705834E
:1007C000024000000403090412010002EF0201408C
:1007D0004123368000010102030141726475696E94
:1007E0006F204C4C430041726475696E6F204C65FC
:1007F0006F6E6172646F0008080000000000000066
:1008000000000000087C00000000007454545C00EC
:100810000000005454547C000000001C10107C00A8
:100820000000005C545474000000007C54547400B8
:100830000000000404047C000000007C54547C0090
:100840000000005C54547C000000007C44447C00A8
:10085000000000001818000000005A3C7E7E3C5A40
:10086000000000407E6E46020000201011241FBED2
:10087000CFEFDAE0DEBFCDBF11E0A0E0B1E0E6E30C
:10088000FEE202C005900D92A034B107D9F726E030
:10089000A0E4B1E001C01D92AF36B207E1F714E069
:1008A000C6E3D4E004C02197FE010E941317C533AC
:1008B000D107C9F70E943F100C9419170C9400003F
:1008C000480F592F511D1416150684F580389105CF
:1008D0006CF597FF02C090E080E04138510514F0BC
:1008E00040E850E0481BFB01E770FF2721E001C012
:1008F000220FEA95EAF777FF02C0695F7F4FFB019D
:1009000033E0F595E7953A95E1F7F695FE2FEE275A
:10091000F795E795E80FF91FE759FE4F415030F082
:100920008191DF011197822B8C93F8CF08952F923C
:100930003F924F925F926F927F928F929F92AF926F
:10094000BF92CF92DF92EF92FF920F931F93CF93BC
:10095000DF93CDB7DEB72E970FB6F894DEBF0FBE8C
:10096000CDBF7C016B015E874D87681779070CF05E
:100970000EC1481759070CF41CC1861797070CF4D1
:1009800038C1982F8F2D7B016A019D878E87EAE3FE
:10099000AE2EB12C00E410E086E490E0CE14DF042B
:1009A00069F5A016B1063CF09501A016B1060CF44D
:1009B000980158018901081719070CF48C010F5F81
:1009C000402F4A19B701C5012E960FB6F894DEBF25
:1009D0000FBECDBFDF91CF911F910F91FF90EF9090
:1009E000DF90CF90BF90AF909F908F907F906F904F
:1009F0005F904F903F902F900C9460043D852E8522
:100A0000DE86CD86C32ED22E9501201B310B388772
:100A10002F8396012E193F093A8729873C01601AD6
:100A2000710A2D853E852E193F093A8329839C0141
:100A30002A193B093C832B838D859E858C199D0942
:100A40009C878B872D853E852C153D0509F458C064
:100A5000C60101979E838D834701512C412C312C77
:100A6000212C8D819E81881599050CF44EC0C10101
:100A700069857A850E94FF169B01200F311FC201F4
:100A800069817A810E94FF16600F711F8F8198859E
:100A9000280E391E460C571C621773071CF4922F40
:100AA0009B01692F90E4891691043CF46F5F462FF7
:100AB000421BB401C9010E9460042FEF821A920AFE
:100AC000D0CF9E2D8F2D7601CD84DE849D878E879D
:100AD0008AE390E066E4A62EB12C00E410E094CF07
:100AE0009E2D8F2DED84FE84DE86CD86C92ED82ED8
:100AF00080E490E05AE3A52EB12C06E410E084CF08
:100B00002D853E853E832D83A7CFC4018C199D0979
:100B10002B813C81829F6001839FD00C929FD00CDF
:100B20001124C4018E199F09869D7001879DF00CC8
:100B3000969DF00C11248D859E85881599050CF4E1
:100B400065C0C6016B857C850E94FF169B012A0D3E
:100B50003B1DC70169817A810E94FF16600F711FDA
:100B60008B819C81C80ED91EE60CF71C6217730797
:100B70001CF4922F9B01692F6F5F462F421BB4011B
:100B8000C9010E9460049FEF891A990AD4CF2D856C
:100B90003E8526173707FCF08D859E85E816F906F9
:100BA00069F186E490E020E4A22EB12C0AE310E083
:100BB0002BCF8D859E85861797070CF082CF9E2DB3
:100BC0008F2DED84FE849D878E878AE390E040E43C
:100BD000A42EB12C92CF2D853E85281739070CF411
:100BE0007FCF36E4A32EB12C0AE310E080E490E03E
:100BF000D5CE2D853E858217930799F686E490E041
:100C000070E4A72EB12C0AE310E0CECE2E960FB6DC
:100C1000F894DEBF0FBECDBFDF91CF911F910F9132
:100C2000FF90EF90DF90CF90BF90AF909F908F900C
:100C30007F906F905F904F903F902F9008950F930B
:100C40001F93CF93DF93803198F4683088F490E15C
:100C5000699FF0011124E754FA4FE80FF11D9581C7
:100C6000292F267029F490FF08C084E080936C0639
:100C7000DF91CF911F910F910895292F2460258333
:100C800020916B062F5F20936B0692959F7081F7E2
:100C9000D82F1FEF160FC2E0C60F0FEF612F8D2F59
:100CA000800F0E941F060F5F0230C1F71F5FC11344
:100CB000F4CFDECFE9E6F1E0A0E0B8E000800EBCC2
:100CC0008111012C1197A0FDFDCF0192B9F70DB450
:100CD0000895FC0180916801882311F13FB7F894D1
:100CE00082E08093E9002091F200822F90E01816B4
:100CF000190614F481E090E0882339F0289844E63E
:100D0000409367014091F1004083222339F0209104
:100D1000F200211103C02BE62093E8003FBF0895A5
:100D20008FEF9FEF08952FB7F89483E08093E90049
:100D30009091E800892F807295FF04C09091F20095
:100D400080E4891B2FBF089580915F0181110DC040
:100D500082E080935B0184E080935C0110925E01ED
:100D600010925D0181E080935F018BE591E0089531
:100D7000CF93DF931F92CDB7DEB76983DC01ED918E
:100D8000FC910280F381E02D41E050E0BE016F5FF5
:100D90007F4F09950F90DF91CF91089583E0809365
:100DA000E9008091F200882319F08AE38093E8003B
:100DB00008950E94930690E00895CF93DF931F92C9
:100DC000CDB7DEB7FC018485958597FD08C02FEF70
:100DD0003FEF358724870F90DF91CF910895CE01A3
:100DE00001960E946906019719F4898190E0F3CF7A
:100DF0008FEF9FEFF0CF0F931F93CF93DF931F924F
:100E0000CDB7DEB78C01FC018485958597FF0BC0BB
:100E1000CE0101960E946906019771F4898190E0E4
:100E2000F80195878487F801848595850F90DF9177
:100E3000CF911F910F9108958FEF9FEFF1CFFC019C
:100E40008485958597FD0BC09FB7F89482E08093C9
:100E5000E9008091F2009FBF90E0019608959FB74E
:100E6000F89482E08093E9008091F2009FBF90E0C7
:100E700008954091550150915601209153013091B0
:100E8000540142175307B4F49091E8009570E1F3D0
:100E90009091E80092FD19C08093F1008091550176
:100EA0009091560101968F739927892B19F48EEF33
:100EB0008093E8008091550190915601019690939E
:100EC00056018093550181E0089580E00895DF92F6
:100ED000EF92FF920F931F93CF93DF93D82E8A0147
:100EE000EB017B01E40EF51ECE15DF0559F0D7FEB0
:100EF00012C0FE0184910E94390721968111F4CF1E
:100F00000FEF1FEFC801DF91CF911F910F91FF905D
:100F1000EF90DF9008958881EECF0F931F93CF93CA
:100F2000DF931F92CDB7DEB782E0898342E450E0C1
:100F300062E877E080E80E9467070E94A406DC016F
:100F400012960D911C910115110589F0D801ED91B2
:100F5000FC910280F381E02DBE016F5F7F4FC801DD
:100F6000099597FD04C0F80100851185ECCF8981B2
:100F70000F90DF91CF911F910F910895615030F044
:100F80002091F100FC0120830196F8CF289884E697
:100F90008093670108953FB7F89480914F01909135
:100FA0005001A0915101B091520126B5A89B05C0F6
:100FB0002F3F19F00196A11DB11D3FBFBA2FA92FD8
:100FC000982F8827BC01CD01620F711D811D911DD5
:100FD00042E0660F771F881F991F4A95D1F7089541
:100FE0008F929F92AF92BF92CF92DF92EF92FF9239
:100FF0006B017C010E94CB074B015C01C114D10441
:10100000E104F104B9F00E94CB07681979098A0953
:101010009B09683E73408105910580F321E0C21A67
:10102000D108E108F10888EE880E83E0981EA11C23
:10103000B11CE4CFFF90EF90DF90CF90BF90AF90C6
:101040009F908F9008958F929F92AF92BF92CF9270
:10105000DF92EF92FF920F931F93CF93DF936C0178
:101060007B018A0180910C01882309F45CC0809186
:101070006801882309F457C080915A0180FF05C098
:101080008091E00082608093E000E801B12C8AEF5B
:10109000A82E93E0892E2AE3922E209711F4BB20EC
:1010A000D9F10E94930681110AC0AA94AA20D9F10D
:1010B00061E070E080E090E00E94F007EECF8C17D6
:1010C0001D0611F00CF08C2F9FB7F8948092E90068
:1010D0002091E80025FD02C09FBFDFCF282F30E020
:1010E000C21BD30BF701815020F041914093F100D6
:1010F000FACFE20EF31EBB2021F09092E800B12C53
:10110000EBCF8091E80085FDE7CF9092E800BB240B
:10111000B394209709F3F3CF5D9884E68093590147
:10112000101611063CF081E090E0F6019383828373
:1011300010E000E0C801DF91CF911F910F91FF9067
:10114000EF90DF90CF90BF90AF909F908F900895D9
:10115000AF92BF92CF92DF92EF92FF920F931F93C5
:10116000CF93DF936C017B018B01040F151FEB0103
:101170005E01AE18BF08C017D10759F06991D601BA
:10118000ED91FC910190F081E02DC6010995892B2C
:1011900079F7C501DF91CF911F910F91FF90EF90EB
:1011A000DF90CF90BF90AF9008954F925F927F9263
:1011B0008F929F92AF92BF92CF92DF92EF92FF9267
:1011C0000F931F93CF93DF932A01EC2DC02FD0E014
:1011D000DE01A80FB91F1097B9F16B01CE0CD11C1D
:1011E000CD2891F1452B81F1F3E075956795FA953E
:1011F000E1F7A038B10514F000E8081BA1E0FE2DCE
:10120000F77009F4A0E0E694E694E694EA0EDB01B8
:10121000AE0DB11D19971CF058E0E52EE61A162FF9
:10122000DB01B695BA2FAA27B795A795A80FB91FC6
:10123000E33009F4A7C0C0F4E13009F44FC0A75966
:10124000BE4FE23009F474C0DF91CF911F910F912E
:10125000FF90EF90DF90CF90BF90AF909F908F90D6
:101260007F905F904F900895EA3FF1F0A759BE4FED
:10127000EB3F51F7812F861B8E1530F790E080E011
:10128000801708F071C0F201E80FF91FE49117FD13
:1012900009C09D01280F391FDE2ED094F901C080AE
:1012A000DC20D0820196ECCFA759BE4F812F861B40
:1012B0008E1550F690E080E0801708F04FC0F201E4
:1012C000E80FF91F249117FD07C06D01C80ED91E44
:1012D000F6013081232B20830196EECFA759BE4F14
:1012E000812F861B8E1508F0AFCFD12CC12CC016D4
:1012F00008F040C0F901EC0DFD1D8491F201EC0DE8
:10130000FD1D949117FD0BC05D01AC0CBD1CF501DA
:101310009080E82FE095E9219E2BF5019083FFEF67
:10132000CF1ADF0AE4CF4C0E5D1EA058BF4F1F5FDF
:10133000812F861B8E1508F087CF90E080E0801704
:1013400090F7F201E80FF91FD49017FD05C09D0139
:10135000280F391FF901D0820196F1CF4C0E5D1E86
:10136000A058BF4F1F5FA2CF4C0E5D1EA058BF4FAD
:101370001F5F80CF4C0E5D1E2C0F3D1FA058BF4F2E
:101380001F5FAECF802F90E0A759BE4F20E830E01E
:101390005901A81AB90AC81BD90BCC0FDD1F702E32
:1013A000CE2CE12C91E0402F5C2DF20185019E01B5
:1013B000F92ECF93DF93ED01EF96EF96229685906D
:1013C000A590EE2059F08F9C4001AF9C50016730F2
:1013D0002CF4D880B094DB20D928D99266233AF037
:1013E000DC90A094DA20D828DD920C94F8091196AC
:1013F0004A9529F75A9551F0472D63951124E20F2C
:10140000F11DA00FB11DC00FD11DD9CFDF91CF911C
:1014100011241ACF4F925F926F927F928F929F9278
:10142000AF92BF92CF92EF920F93CF93DF93D0E022
:10143000C0E037EF632E37E0732E48EF442E47E0CD
:10144000542ECE01880F991F9C0122543A4F490116
:10145000B12CA12CF40181914F0182FF46C08295ED
:101460008F70F3010491F201E49049EF57E0882373
:10147000D1F041E050E09E2D977011F450E040E033
:101480002E2D269526952695240F352F311D029F4A
:10149000B001039F700D1124869FA001879F500DFE
:1014A00011244750584F82E0C82E30E020E0BE01A2
:1014B000C5010E94D508F8E0AF0EB11C20E8A216C5
:1014C000B10441F62896C034D10509F0BACFDF91B6
:1014D000CF910F91EF90CF90BF90AF909F908F9052
:1014E0007F906F905F904F90089581FD02C08BE0D8
:1014F000B8CF8DE0B6CF2D9A08958A3031F46623A7
:1015000011F02E9A08952E9808958B3031F46623A9
:1015100011F02F9A08952F980895893021F46111C0
:101520000C947B0A2D980895BC0190E080E00C9407
:10153000F0078FB18095807F669B88601C9B8460DC
:10154000089520E191E061FD94E060FD990F62FD56
:101550009295687F269FD0011124A80FA759BE4FEE
:101560008C9140FF03C0892B8C930895909589231B
:10157000FBCFEF92FF920F931F93CF93DF937C01EA
:101580008B01085F1F4FEB0177FF02C0D0E0C0E086
:10159000C8010134110514F080E490E0C817D907A0
:1015A00074F480E8E816F10440F4C034D10528F45E
:1015B00041E0BE01C7010E94A10A2196E9CFDF9157
:1015C000CF911F910F91FF90EF9008958F929F926E
:1015D000AF92BF92CF92DF92EF92FF920F931F9341
:1015E000CF93DF936D3089F0C0904201D0904301DA
:1015F0006A30D1F4109245011092440188E0C80E7F
:10160000D11CD0924301C092420181E090E0DF9171
:10161000CF911F910F91FF90EF90DF90CF90BF90EF
:10162000AF909F908F9008950091440110914501D3
:10163000E5E06E9FE0011124C455DF4F5801F12C05
:10164000F5E0E12CFF1629F0CE010196FE01E490B1
:10165000EC01912C812CF0E8AF16B10458F4B601DE
:10166000680D791D6034710528F44E2D4170C50157
:101670000E94A10AE6948FEF881A980AE8E08E1675
:10168000910449F7F394FFEFAF1ABF0A86E0F8120E
:10169000D7CF0A5F1F4F1093450100934401B5CF88
:1016A00090914001982329F490914101982381E081
:1016B00009F480E0089580E00C945A061F93CF93BC
:1016C000DF93DC0130E020E050E040E011E0C1E0D9
:1016D000D0E02617370791F114968C911497811159
:1016E00015C014961C93149712968D919C91139784
:1016F000ED91FC911197E80FF91FE4911596EC9389
:101700001597019613969C938E93129714969C911D
:10171000149715968C911597892349F0FE01022E96
:1017200002C0EE0FFF1F0A94E2F74E2B5F2B990FBA
:1017300014969C9314972F5F3F4FCBCFCA01DF9134
:10174000CF911F9108952F923F924F925F926F9287
:101750007F928F929F92AF92BF92CF92DF92EF9241
:10176000FF920F931F93CF93DF93CDB7DEB72D97E3
:101770000FB6F894DEBF0FBECDBF5C018B015A835C
:1017800049831C821B821D821E8268E070E0CE01AC
:1017900001960E945E0B01961C0168E070E0CE018C
:1017A00001960E945E0B7C0161E070E0CE01019623
:1017B0000E945E0B91012A0D3B1D121613060CF0C0
:1017C000B3C097012F5F3F4FA901400F511F14165F
:1017D00015060CF0A9C0380147E064227724A8015F
:1017E00073E0559547957A95E1F7598748878901C0
:1017F00037FF02C0095F1F4F63E0159507956A9593
:10180000E1F727703327232B11F00F5F1F4F482E6E
:1018100051E05F83512CF12CE12CD12CC12C88E0BC
:1018200090E09C01261937093D872C87C016D10608
:101830000CF07AC088248394912C61E070E0CE0192
:1018400001960E945E0B892B21F432E0830E911CDD
:10185000F4CFB401CE0101960E945E0B01969B87E6
:101860008A8790E080E04A855B858417950708F0B9
:1018700058C0442011F05F81552AAF81AA0F09F0AA
:101880004AC0288539852C0D3D1DA9014F5F5F4F4A
:101890004930510580F5A5014E0D5F1D40385105B9
:1018A00050F5B9017695762F6627779567956A0D7D
:1018B0007B1D6E0D7F1D852C912CFB01E759FE4F82
:1018C000A401062C01C0440F0A94EAF75081452B6D
:1018D00040836114710479F02730310561F0FB0118
:1018E000E751FE4F0C8402C0959487940A94E2F766
:1018F0005080852880822FEFE21AF20AE214F30466
:101900006CF03FEFC31AD30A41E04F83F12CE12C76
:1019100001965A2EA8CFAF83A52DFACF51E05F8351
:10192000F7CF81E0482682CF2D960FB6F894DEBF20
:101930000FBECDBFDF91CF911F910F91FF90EF9020
:10194000DF90CF90BF90AF909F908F907F906F90DF
:101950005F904F903F902F900895089590E080E021
:10196000089510926706109266061092690610920A
:1019700068068EE080936A0610926B0610926C06E1
:1019800081E080936D062E9A2F9AEEEBF5E080E8C9
:10199000DF011D928A95E9F7EEE3F6E088E2DF01C8
:1019A0001D928A95E9F708950C9466161F93CF93BC
:1019B000DF93C82FD62F142F0E947B0A88EC90E06B
:1019C0000E94940A60E08D2F0E947D0A82E090E0E0
:1019D0000E946616181729F0612F82E090E00E949D
:1019E0006E1684EF91E00E94940A61E08D2F0E94B0
:1019F0007D0A0E94990A8C23C817D9F3DF91CF91F1
:101A00001F9108951F920F920FB60F9211248F937A
:101A10009F938091E1009091E100937F9093E1008A
:101A200083FF0FC01092E90091E09093EB001092B9
:101A3000EC0092E39093ED001092680198E090938F
:101A4000F00082FF22C093E09093E9009091F200B1
:101A5000992319F09AE39093E80090915901992302
:101A600041F090915901915090935901911101C009
:101A70005D9A90916701992341F09091670191508F
:101A800090936701911101C0289A84FF18C080913A
:101A9000E2008E7E81608093E2008091E1008F7E83
:101AA0008093E10080915A018E7E806180935A017B
:101AB0009F918F910F900FBE0F901F90189580FFF0
:101AC000F7CF8091E2008E7E80618093E20080916A
:101AD000E1008E7E8093E10080915A018E7E8160CC
:101AE000E5CF1F920F920FB60F921124CF92DF9283
:101AF000EF92FF920F931F932F933F934F935F9318
:101B00006F937F938F939F93AF93BF93EF93FF93C5
:101B1000CF93DF93CDB7DEB76C97DEBFCDBF10920A
:101B2000E9008091E80083FF25C068E0CE0145967A
:101B30000E94BE0782EF8093E8008D8987FF39C03D
:101B40009091E80090FFFCCF982F907609F034C177
:101B50009E894F89588D2F89F88C911131C080381A
:101B600061F5809158018093F1001092F1008EEFA1
:101B70008093E8006C960FB6F894DEBF0FBECDBF21
:101B8000DF91CF91FF91EF91BF91AF919F918F9195
:101B90007F916F915F914F913F912F911F910F9185
:101BA000FF90EF90DF90CF900F900FBE0F901F909F
:101BB00018959EEF9093E800C7CF1092F100D5CF13
:101BC000913059F48111D3CF4130510581F6809184
:101BD00058018D7F80935801CACF933049F4811109
:101BE000C6CF4130510519F6809158018260F2CF7D
:101BF000953041F48091E80080FFFCCF206820936D
:101C0000E300B5CF963009F0A9C00B8D1C8D22E002
:101C10001092E9001092560110925501F2122EC056
:101C200010925401109253010E948D071F8299E077
:101C30009983FA8291E09E8390EA98879AEF998738
:101C40002091550130915601275F3F4F3C832B83F4
:101C50008D831092E9001092560110925501109355
:101C600054010093530149E050E0BE016F5F7F4F84
:101C700080E00E9467070E948D0779CF109354017E
:101C8000009353010E94A406DC0112960D911C9151
:101C90000115110509F451C1D801ED91FC910480A1
:101CA000F581E02DBE016B5E7F4FC801099500975D
:101CB00009F03EC1F80100851185EACFF3E0FF127B
:101CC0000EC08F89882309F440C0823061F440E857
:101CD00060E186EE97E00E94ED0F811148CF81E22E
:101CE0008093EB0047CF813029F440E86BE08AED28
:101CF00097E0F1CF833099F70E94A406DC01129699
:101D0000ED90FC908E010F5F1F4F6801E114F1040C
:101D100079F0D701ED91FC910680F781E02DB801B3
:101D2000C7010995080F111DF701E084F184EECF7A
:101D3000D8011C92F60101900020E9F73197BF010C
:101D40006C197D0940E0C601C6CF64EC77E0FB0169
:101D5000449150E080E80E94670709CF973009F46A
:101D6000BECF983021F481E08093F10000CF99300C
:101D700009F0FDCE837009F0B2CFE2E1F1E081E03D
:101D800031E096E32191222371F08093E9003093B2
:101D9000EB00DF0111972C912093EC009093ED0064
:101DA0008F5F873079F78EE78093EA001092EA0020
:101DB0008F8980936801DBCE8B8D9C8D1092E9001A
:101DC0001092560110925501909354018093530143
:101DD000898D811192C08E899D89913A49F4813211
:101DE00009F07DCF47E050E065E071E080E0B3CFDF
:101DF000913209F074CF833269F48F89988DB0E005
:101E0000A0E08093010190930201A0930301B0939D
:101E10000401ADCE803269F48091E80082FFFCCFEE
:101E200067E085E091E00E94BE078BEF8093E800B9
:101E30009ECE823209F09BCE8F8980930C01EEEF0B
:101E4000FFE7859194918B3F9C4D51F1E0E0F8E0E4
:101E50008091050190910601A0910701B0910801C0
:101E6000803B9440A105B105F1F480910C0180FD07
:101E70001AC0EE3F8AE0F80789F587E797E7918374
:101E80008083809160008093570188E19BE00FB6CA
:101E9000F894A895809360000FBE9093600067CE81
:101EA000EEEFFAE0D5CF808191818737974709F02F
:101EB0005ECEA895809160008861809360008091DB
:101EC000570180936000EE3F2AE0F20789F080918D
:101ED000FE0A9091FF0A9183808349CE808191818F
:101EE0008737980751F29093FF0A8093FE0AC5CF77
:101EF0001092FF0A1092FE0A3ACE0E94A406DC015C
:101F000012960D911C910115110509F4E8CED80126
:101F1000ED91FC910190F081E02DBE016B5E7F4F51
:101F2000C8010995811123CEF80100851185EBCFF9
:101F3000181619060CF41BCED2CEF1E0FF12BECE5D
:101F400068EC77E004CF1F920F920FB60F92112426
:101F50002F933F938F939F93AF93BF9380914B01A8
:101F600090914C01A0914D01B0914E0130914A01E8
:101F700023E0230F2D3758F50196A11DB11D2093A5
:101F80004A0180934B0190934C01A0934D01B09373
:101F90004E0180914F0190915001A0915101B0915B
:101FA00052010196A11DB11D80934F0190935001E4
:101FB000A0935101B0935201BF91AF919F918F9126
:101FC0003F912F910F900FBE0F901F90189526E80C
:101FD000230F0296A11DB11DD2CFEF92FF920F9356
:101FE0001F93CF93DF93F82E192FE62E042F81E055
:101FF000860F880F0E94390783E00E943907CF2D92
:10200000D12FEC0EFD2EF11CCE15DF05B9F007FF28
:1020100013C0FE0184910E943907182F80E00E94AE
:102020003907812321968111EFCFDF91CF911F9145
:102030000F91FF90EF9008958881EDCF81E0F5CF6B
:10204000E9E6F5E01382128288EE93E0A0E0B0E0CA
:1020500084839583A683B7838CE191E09183808309
:102060008FEF9FEF95878487E9EBF5E0138212826B
:102070008EE291E09183808388E184830895CF93F9
:10208000DF9300D000D0CDB7DEB7789484B58260FE
:1020900084BD84B5816084BD85B5826085BD85B50C
:1020A000816085BD80916E00816080936E0010928A
:1020B0008100809181008260809381008091810005
:1020C0008160809381008091800081608093800096
:1020D0008091910082608093910080919100816055
:1020E0008093910080919000816080939000809116
:1020F000C10084608093C1008091C10082608093A0
:10210000C1008091C10081608093C1008091C300B3
:1021100081608093C3008091C00082608093C00082
:102120008091C20081608093C20080917A008460B7
:1021300080937A0080917A00826080937A00809107
:102140007A00816080937A0080917A008068809321
:102150007A00109268011092580110925A018091F1
:10216000D70081608093D70080EA8093D80089B53A
:10217000806189BD89B5826089BD09B400FEFDCF4B
:1021800061E070E080E090E00E94F0078091D8006C
:102190008F7C80618093D8008091E000807F809365
:1021A000E0008091E1008E7E8093E1008DE08093DD
:1021B000E200559A209A81EC80937C0085B1806F73
:1021C00085B984B1877E84B984B1876E84B95E9AFB
:1021D0005F988AB1806D8AB9769A6E9881B3806F64
:1021E00081BB899880B38D7080BB80E58CBD81E018
:1021F0008DBD85E090E00E94940A5F9A85E090E0B2
:102200000E94940A5E985C98ECE5F6E089E696E018
:1022100024912EBD00000DB407FEFDCF31968E1720
:102220009F07B1F75C9A81E8809364008091650014
:102230008160809365000E945B0B0E94990A87FF72
:1022400015C05C9885EA8EBD00000DB407FEFDCF79
:102250005C9A2E982F982D988091640080628093CC
:10226000640081E083BF889513BEFCCF0E94990A69
:1022700082FF18C02D980E94990A8478843821F42E
:102280004FEF6BE00E94D60C0E94990A8471843152
:1022900021F440E06AE00E94D60C88EC90E00E94B5
:1022A000940AE4CF0E947B0A82E090E00E94D40C62
:1022B000882309F486C03E9A3F9A81E090E00E940C
:1022C000D40C082F0470902E81FF12C001112E989B
:1022D00001EF1FEF1B830A8308E010E078E5872EEB
:1022E0000E94990A86FF70C02E9A2F9A0E947B0A3C
:1022F00082E390E00E94940A0E94990A8111F8CF2B
:102300006091BD0570E088EE93E00E94FF16609337
:102310000001809164008E7F8093640080917A0038
:10232000806480937A0080917A0086FDFCCF0091D2
:102330007800109179000E94CB07AB01BC01C80165
:10234000B0E0A0E0DC01992788278C019D01040FF3
:10235000151F261F371FC901B80120916400216095
:1023600020936400611571058105910511F00E94AB
:102370005D1681E080936E060E94B10CF0E14F2E55
:10238000512C612C712CA8E08A2E912CA12CB12CFF
:102390008FB7F89440914B0150914C0160914D01E1
:1023A00070914E018FBF10914801112309F4DFC0D5
:1023B0001092480180E090E0892B51F30E940000C8
:1023C000E7CF3E983F9879CF992039F02A813B8119
:1023D0002430310511F42E9A2F9881E00E945A067C
:1023E0002A813B8137FF03C0319521953109277040
:1023F00033278A819B8197FD079663E095958795A2
:102400006A95E1F74A815B8157FF05C00197D801C2
:10241000A21BB30B9D01BC017695762F662777959D
:10242000679567597E4FF12CE12C3801621A730AC7
:102430008E3FBFEF9B0709F43DC08E9CD0018F9C5F
:10244000B00D112450E040E0A455BA4F5B01E0E824
:10245000AE0EB11C8F3F980791F0FD01E40FF51F00
:10246000E4916B01C40ED51EF0E02F01022E01C0D5
:10247000440C0A94EAF7F60154884528448A211549
:10248000310599F0FD01E40FF51FE4916501C40EDB
:10249000D51EF0E02F01062C02C0559447940A94F3
:1024A000E2F7F60154884528448A4F5F5F4F48356C
:1024B000510581F6019660587F4FEA94EF2809F0A4
:1024C00052C00E945B0B8FE090E00E94940A2A8128
:1024D0003B812F5F3F4F3B832A832931310509F030
:1024E000FFCE992011F02F9A2D9880E991E00E945B
:1024F000940A0E947B0A81E090E00E94D40C80FF45
:10250000F7CE8AE090E00E94D40C9FEF980F9E3F98
:1025100008F0EECE22E330E03093450120934401F1
:1025200028E330E030934301209342010BE010E0B8
:102530001B830A83682F89EB95E00E94E60A8A8153
:102540009B810E94D40C0A811B810F5F1F4F1B834C
:102550000A830131110571F70E945B0B88EE93E04D
:102560000E94940AC5CEEE24E394F12C61CF8091B1
:102570004901242F281B822F90910001291748F42C
:102580008F5F891708F016CF81E083BF889513BE4F
:1025900011CF01E000934801409349014091460169
:1025A000509147014F5F5F4F5B834A8350934701D0
:1025B0004093460180914101809340010E94990A15
:1025C00080934101E9E6F1E011111FEF002411931E
:1025D0001193119311930394D1F710924301109228
:1025E0004201109245011092440180916C068230A4
:1025F00009F417C140F4882321F1813009F452C055
:102600000E945B0BD7CE30916A06EEE3F6E020E045
:102610008530B0F7321709F49EC28181A08150E164
:10262000859FC001112487549A4FA80FB92FB11D5F
:1026300015968C911597846015968C932F5F329622
:10264000E9CF0E94B10C44EA56E070E060E090E00F
:1026500080E00E94A30B8A819B8164E170E00E946C
:10266000EB16892B29F480916E06082700936E06DD
:1026700080916E06882341F049E656E06AE270E0F8
:1026800080E290E00E94A30B8CE00E94500B882314
:1026900009F4B6CF81E080936C0686E990E00E9451
:1026A000940AAECF80916A066AE00E94DF168983A1
:1026B000192F9A834CE150E066E170E08CE190E0E4
:1026C0000E9497040981011102C00AE00983E7EF23
:1026D000F7E00491E8EFF7E0E4902E2D277081E019
:1026E00090E011F490E080E02E2D26952695269519
:1026F000280F392F311D029FC001039F900D112417
:10270000F981F89FA001F99F500D11244750584FAF
:10271000EAEFCE2E30E020E060E270E088E390E067
:102720000E94D508111102C01AE01A83E7EFF7E002
:102730000491E8EFF7E0E4902E2D277081E090E01F
:1027400011F490E080E02E2D269526952695280FF1
:10275000392F311D029FC001039F900D11241A8152
:10276000189FA001199F500D11244750584F7AEF20
:10277000C72E30E020E060E270E080E490E00E944C
:10278000D5084CE250E062E370E08CE290E00E94F9
:10279000970421E230E030934501209344013093C7
:1027A00043012093420143E050E066E371E089EB8E
:1027B00095E00E94A80880E590E090934501809301
:1027C000440141E250E0509343014093420145E00F
:1027D00050E06AE371E089EB95E00E94A80880E38D
:1027E0000E94500B882339F080916A06823018F0DD
:1027F000815080936A0680EC0E94500B882339F048
:1028000080916A06843118F48F5F80936A068CE0A9
:102810000E94500B882309F4F3CE82E080936C066B
:10282000EFCE80E10E94500B882361F08091680612
:1028300090916906873091052CF401969093690672
:102840008093680680E80E94500B882361F0809195
:10285000680690916906181619062CF40197909352
:1028600069068093680680E40E94500B882361F01B
:1028700080916606909167068F3091052CF4019641
:10288000909367068093660680E20E94500B88232F
:1028900061F08091660690916706181619062CF46F
:1028A0000197909367068093660688E00E94500B1C
:1028B000882309F4EFC080916D06882309F4BFC016
:1028C000198250916A065C830981051708F46AC071
:1028D000EEE3F6E01A821C812A81121709F4ADC0DA
:1028E000408150E01181812F90E09C0164E0220F33
:1028F000331F6A95E1F7D901A754BA4FA40FB51F4A
:1029000015966C9115976E70616C15966C93019786
:10291000240F351F70E060E0D901A755BA4F6D0153
:102920007601E60EF71E2FEF3FEFB82FB11BB983EC
:10293000211103C00981002329F1D901A40FB51F7A
:10294000509700F58F3F9807E9F088309105D4F44F
:10295000D701A20FB31F15963C90159730FC12C0FB
:10296000032D0F70202E32940FE0302206E0031565
:1029700008F460C0329400EF302200E1300E2328CA
:1029800015962C922F5F3F4F2230310589F6019624
:10299000605F7F4F6033710519F61A811F5F1A83DC
:1029A000329699CF0E940E16A30192010E947C16C6
:1029B0006A830E940E16A50194010E947C16462F80
:1029C0001A81812F90E02091660630916706821B64
:1029D000930B0196039760F4862F90E02091680690
:1029E00030916906821B930B0196039708F469CF17
:1029F000EEE3F6E080E09081191304C0918149175D
:102A000009F45FCF8F5F329609810817A0F709811B
:102A1000802F90E0FC01EE0FFF1FE25CF94F1A815E
:102A20001083880F991FFC01E15CF94F60830F5FF1
:102A3000098347CF00E8302EA2CF10926D06609137
:102A40006806709169068091660690916706FB01A1
:102A500074E0EE0FFF1F7A95E1F7E754FA4FE80FA5
:102A6000F91F258122FF74C00FEF09831FEF1A831E
:102A7000609168060981600F809166061A81810F56
:102A80000E941F061F5F1A83123091F70F5F0983A0
:102A9000023061F784E00E94500B8823B9F08091E6
:102AA000680690916906E0916606F091670664E019
:102AB000880F991F6A95E1F787549A4FE80FF91F1D
:102AC000858182FD03C092E0892785830E940A0ADE
:102AD000209168063091690643E0220F331F4A9522
:102AE000E1F73B832A83009166061091670653E065
:102AF000000F111F5A95E1F72034310528F448E002
:102B0000B901C8010E9460046A817B81695F7F4FBF
:102B10006034710520F448E0C8010E9460046A81B5
:102B20007B81C8010E94B90A6A817B81C80107962E
:102B30000E94B90A80916B0640E850E0481B510999
:102B400020916A062417150609F05ACD83E066CE57
:102B50000E941F069FCF0E940A0A80916C06833054
:102B600079F48BE060E00E947D0A8CE00E94500BBB
:102B7000882309F445CD10926C0684E690E08FCD51
:102B80008AE0F0CF8F929F92AF92BF92CF92DF9266
:102B9000EF92FF92CF93DF93EC01688179818A8174
:102BA0009B81611571058105910521F464E279ED40
:102BB0008BE597E02DE133EF41E050E00E947C1679
:102BC00049015A019B01AC01A7EAB1E40E949B169E
:102BD0006B017C01ACEEB4EFA50194010E94A91633
:102BE000C60ED71EE81EF91EF7FE06C081E0C81A01
:102BF000D108E10880E8F80AC882D982EA82FB821B
:102C0000C701B6019F77DF91CF91FF90EF90DF90E2
:102C1000CF90BF90AF909F908F9008958F929F928A
:102C2000AF92BF92CF92DF92EF92FF9260910D012F
:102C300070910E0180910F01909110016115710545
:102C40008105910521F464E279ED8BE597E02DE1B2
:102C500033EF41E050E00E947C1649015A019B018C
:102C6000AC01A7EAB1E40E949B166B017C01ACEEBB
:102C7000B4EFA50194010E94A916C60ED71EE81E46
:102C8000F91EF7FE06C081E0C81AD108E10880E805
:102C9000F80AC0920D01D0920E01E0920F01F0925D
:102CA0001001C701B6019F77FF90EF90DF90CF90A2
:102CB000BF90AF909F908F90089560930D01709397
:102CC0000E0180930F01909310010895F999FECFA2
:102CD00092BD81BDF89A992780B50895262FF9995C
:102CE000FECF1FBA92BD81BD20BD0FB6F894FA9AEF
:102CF000F99A0FBE01960895052E97FB1EF40094D5
:102D00000E94931657FD07D00E94AE1607FC03D011
:102D10004EF40C94931650954095309521953F4F65
:102D20004F4F5F4F089590958095709561957F4FB7
:102D30008F4F9F4F08950E94D016A59F900DB49F6E
:102D4000900DA49F800D911D11240895B7FF0C9440
:102D50009B160E949B16821B930B0895A1E21A2ECC
:102D6000AA1BBB1BFD010DC0AA1FBB1FEE1FFF1F2F
:102D7000A217B307E407F50720F0A21BB30BE40B7F
:102D8000F50B661F771F881F991F1A9469F76095C6
:102D90007095809590959B01AC01BD01CF01089580
:102DA000A29FB001B39FC001A39F700D811D11248C
:102DB000911DB29F700D811D1124911D0895991BC5
:102DC00079E004C0991F961708F0961B881F7A9522
:102DD000C9F780950895AA1BBB1B51E107C0AA1F24
:102DE000BB1FA617B70710F0A61BB70B881F991FAC
:102DF0005A95A9F780959095BC01CD01089597FB50
:102E0000072E16F4009407D077FD09D00E94EB1628
:102E100007FC05D03EF4909581959F4F08957095DD
:102E200061957F4F0895EE0FFF1F0590F491E02DFF
:062E30000994F894FFCFA5
:102E360010FFFFFFFF00E10000000000000100009E
:102E46000000C1808100000000000000B8062308D1
:102E5600D906CE061F07DD06FB0600000000E60ABF
:102E6600A808AE0CAD0C555345004D494E455300D0
:00000001FF
